:020000040800F2
:100000002852002029030008433B0008452F000820
:10001000413B0008B7090008D95D00080000000056
:10002000000000000000000000000000690200085D
:10003000A90B000800000000C502000825580008B0
:100040004303000843030008430300084303000878
:100050004303000843030008AB0B000843030008F8
:1000600043030008B10B0008B70B00084303000866
:100070004303000843030008430300084303000848
:100080004303000843030008430300084303000838
:10009000B90900084303000843030008BD0B00082A
:1000A0004303000843030008430300084303000818
:1000B0004303000843030008430300084303000808
:1000C00043030008430300084303000843030008F8
:1000D000430300084303000843030008195D0008B8
:1000E00043030008430300084303000843030008D8
:1000F00043030008F55800084303000843030008C1
:1001000043030008430300084303000843030008B7
:1001100043030008430300084303000843030008A7
:100120004303000843030008610A00084303000872
:100130004303000843030008430300084303000887
:10014000C5090008430300084303000843030008EF
:100150004303000843030008430300084303000867
:100160004303000843030008430300084303000857
:100170004303000843030008430300080000000095
:10018000430300084303000800F002F800F05CF8A5
:100190000AA090E8000C82448344AAF10107DA45E2
:1001A00001D100F051F8AFF2090EBAE80F0013F0D8
:1001B000010F18BFFB1A43F001031847E493000036
:1001C000049400000A444FF0000C10F8013B13F0B7
:1001D000070408BF10F8014B1D1108BF10F8015BA0
:1001E000641E05D010F8016B641E01F8016BF9D193
:1001F00013F0080F1EBF10F8014BAD1C0C1B09D1EA
:100200006D1E58BF01F801CBFAD505E014F8016B5B
:1002100001F8016B6D1EF9D59142D6D370470000ED
:100220000023002400250026103A28BF78C1FBD8FF
:10023000520728BF30C148BF0B6070471FB509F097
:1002400038F91FBD10B510BD00F0BEF91146FFF71B
:10025000F5FF07F0E8F900F0DCF903B4FFF7F2FF6F
:1002600003BC00F0DFF900002C4B19680868B0E807
:10027000F04F80F30988BFF36F8F4FF0000080F3D9
:10028000118870470000000008480068006880F38B
:1002900008884FF0000080F3148862B661B6BFF39F
:1002A0004F8FBFF36F8F00DF00BF00BF08ED00E08E
:1002B000DFF80C00016841F470010160704700BF75
:1002C00088ED00E0EFF30980BFF36F8F134B1A68DE
:1002D0001EF0100F08BF20ED108A20E9F04F1060CB
:1002E00009B44FF0500080F31188BFF34F8FBFF374
:1002F0006F8F08F0A9FA4FF0000080F3118809BC55
:1003000019680868B0E8F04F1EF0100F08BFB0EC95
:10031000108A80F30988BFF36F8F70470C010020AB
:10032000EFF30580704700000948804709480047FF
:10033000FEE7FEE7FEE7FEE7FEE7FEE7FEE7FEE795
:10034000FEE7FEE704480549054A064B70470000F2
:10035000E558000889010008284C00202852002098
:10036000284E0020284E002053EA020C00F069803D
:100370002DE9F04B4FF00006002B1FBFB3FA83F5B9
:1003800003FA05F424FA05F65E4012BF1643B2FAEA
:1003900082F502FA05F4C5F120051EBF22FA05FC1C
:1003A00044EA0C04203556EA044C4FEA144418BFC2
:1003B000641C4FF000084FF00009904271EB030CF1
:1003C00039D3002919BFB1FA81F701FA07F6B0FA5B
:1003D00080F700FA07F6C7F120071EBF20FA07FCD6
:1003E00046EA0C062037B6FBF4FCA7EB0507103FE6
:1003F00007F01F0BCBF120060CFA0BFB2CFA06F6CC
:1004000044BFB3460026202FA4BF5E464FF0000B2A
:100410005BEA060C08BF4FF0010B19EB0B09ABFBB5
:10042000027C48EB0608C01B06FB02CC0BFB03CC8E
:1004300071EB0C01C1E70B46024641464846BDE858
:10044000F08B13B54FF000004FF00001AFF30080C8
:10045000BDE81C40704710B5431C02E010F8011BBA
:1004600071B18107FAD14FF0013202C88C1A8C4366
:1004700014EAC211F9D0C01A0A0603D0C01E10BD7A
:10048000C01A10BD0A0401D0801E10BD0902FCD0A4
:10049000401E10BD10B5203AC0F00B80B1E81850D6
:1004A000203AA0E81850B1E81850A0E81850BFF45E
:1004B000F5AF5FEA027C24BFB1E81850A0E81850FD
:1004C00044BF18C918C0BDE810405FEA827C24BF51
:1004D00051F8043B40F8043B08BF7047D20728BFDF
:1004E00031F8023B48BF11F8012B28BF20F8023B2E
:1004F00048BF00F8012B704702F0FF0343EA0322D4
:1005000042EA024200F037B84FF0000200B513464D
:1005100094469646203922BFA0E80C50A0E80C5023
:10052000B1F12001BFF4F7AF090728BFA0E80C50D4
:1005300048BF0CC05DF804EB890028BF40F8042BCD
:1005400008BF704748BF20F8022B11F0804F18BF3A
:1005500000F8012B704770477047704710B500F0E6
:100560002BF8006810BD10B5044600F025F80460B3
:1005700010BD4FF000020429C0F0128010F0030CEF
:100580003FF4C4AFCCF1040CBCF1020F18BF00F86B
:10059000012BA8BF20F8022BA1EB0C01FFF7B6BF7F
:1005A0005FEAC17C24BF00F8012B00F8012B48BF93
:1005B00000F8012B7047000000487047C84B00202E
:1005C00000487047C84B00207546FFF7F9FFAE465C
:1005D00005006946534620F00700854618B020B54F
:1005E000FFF7B0FEBDE820404FF000064FF00007D7
:1005F0004FF000084FF0000B21F00701AC46ACE8CB
:10060000C009ACE8C009ACE8C009ACE8C0098D4637
:10061000704710B50446AFF300802046BDE8104097
:10062000FFF71BBE01491820ABBEFEE72600020003
:1006300070470000B7EE000A80ED000A9FED040A43
:1006400080ED010A80ED020A80ED030A7047000088
:100650000000000001221021014801F0C5B800008F
:100660000000024000221021014801F0BDB8000046
:10067000000002407047000001221146014801F0CD
:10068000B3B800000004024000220121014801F03B
:10069000ABB800000004024030B5437804781B0278
:1006A0001BB2234300EE103A1B4CB8EEC00AD4ED47
:1006B000000A20EE200A81ED000AC37885781B022B
:1006C0001BB22B4300EE103AF8EEC00A94ED000A7C
:1006D00060EE800AC1ED010A437904791B021BB266
:1006E000234300EE903AF8EEE00A20EE800A81ED16
:1006F000020A017AC3790904807941EA032101439E
:1007000000EE101ADFED050AB8EE400A20EE200ACE
:1007100082ED000A30BD00007401002000401C4240
:10072000704706F0AFBF06F0D5BC000010B54278A8
:100730000378120212B21A4300EE102A124BB8EEDE
:10074000C00AD3ED010A20EE200A81ED000AC2782A
:100750008478120212B2224300EE102AF8EEC00A88
:1007600093ED010A60EE800AC1ED010A4279007939
:10077000120212B2024300EE902AF8EEE00A20EED6
:10078000800A81ED020A10BD7401002010B5FFF748
:1007900071FFFFF7C5FF05F025FE08B1802402E0D8
:1007A00005F08CFD044605F0E9FF10B144F040006F
:1007B00010BD05F075FF204310BD00002DE9FC4180
:1007C00004460D461646002000900190FFF74AFFB0
:1007D000922000F0BFF806226946122000F09CF833
:1007E000FFF738FF9DF801009DF80010000200B2ED
:1007F000084300EE100A474FB8EEC00AD7ED000AD2
:1008000020EE200A85ED000A9DF803009DF80210F5
:10081000000200B2084300EE100AF8EEC00A97ED9D
:10082000000A60EE800AC5ED010A9DF805009DF8FA
:100830000410000200B2084300EE900AF8EEE00A4D
:1008400020EE800A85ED020AFFF71EFF08226946A6
:10085000002000F061F8FFF70FFF9DF800000F285F
:1008600030D19DF803009DF80210000200B2084349
:1008700000EE100AD7ED010AB8EEC00A20EE200AF9
:1008800084ED000A9DF805009DF80410000200B2F6
:10089000084300EE100AF8EEC00A97ED010A60EE78
:1008A000800AC4ED010A9DF807009DF806100002B9
:1008B00000B2084300EE900AF8EEE00A20EE800A4B
:1008C00084ED020AFFF7CEFEA22000F043F80222D8
:1008D0006946222000F020F8FFF7BCFE9DF80000DA
:1008E0009DF80110C00040EA5110B0F5806F02DBA6
:1008F000A0F5006000B200EE100AB4EE001AF8EEA7
:10090000C00AB3EE070A00EE810A86ED000ABDE8D0
:10091000FC8100007401002070B50D46144640F0C3
:10092000800000F017F806E0552000F013F805F8F5
:10093000010B641EE4B2002CF6D170BD10B50C465C
:1009400040F0800000F006F8552000F003F8207019
:1009500010BD000001B582B04FF47A700090012301
:1009600001AA02A9024801F015FD9DF804000EBD80
:100970009804002002784078D20042EA5010B0F586
:10098000806F02DBA0F5006000B200EE100AB4EE4A
:10099000001AF8EEC00AB3EE070A00EE810A81EDF4
:1009A000000A704710B50C46FFF7D4FF2046BDE89B
:1009B0001040FFF7CFBFFEE7014800F09BBA0000F0
:1009C000F4030020014800F095BA00001C04002048
:1009D00038B50E4C4FF4007525600025A560E56024
:1009E000082525610A4C050A25706070080AA07068
:1009F000E170100A20716271180AA071E3716B46F0
:100A000022460249034800F0F0F838BDCC09002026
:100A10003A0000201C04002038B50E4C4FF400753D
:100A200025600025A560E560082525610A4C050ABA
:100A300025706070080AA070E170100A2071627160
:100A4000180AA071E3716B4622460249034800F080
:100A5000CCF838BDFC0900204A000020F403002037
:100A600070B523480068800240D521494FF0F460FA
:100A7000083108601F4C207880070CD5207820F0C2
:100A800002002070207840F00400207001221146FE
:100A9000194800F0A9FE6078184D80070CD56078E1
:100AA00020F002006070607840F004006070012265
:100AB0001021284600F098FEA07880070CD5A07879
:100AC00020F00200A070A07840F00400A070012285
:100AD0001021284600F088FE06F09AFC2078400796
:100AE00004D50748016841F00101016070BD0000B4
:100AF0000064024064000020000402400000024044
:100B0000103C01400168CAB2103A1823B2FBF3F25C
:100B1000064B9B5CC3656FF30901032A02D9091DCB
:100B2000816500E08165806D7047000038950008A0
:100B300010B5014600208A6A8B694FF0C074002B03
:100B40000ED0B3F5005F1AD062B3012A2AD0022A70
:100B500028D0032A03D1C96AC90100D5012010BDDC
:100B60001AB1012A06D0022AF9D1C96AC901F6D5FB
:100B7000012010BDC96AA142FBD1012010BD52B1B4
:100B8000012A0AD0022A06D0032AF7D1C96AA14253
:100B9000F4D1012010BD012010BDC96AC901FBD5E7
:100BA000012010BD012010BD7047012000F028BDBC
:100BB000082000F025BD102000F022BD202000F00C
:100BC0001FBD72B6FEE790F82020012A07D0022A46
:100BD00005D0416A41F480214162012070470068DC
:100BE00042690A43426100207047F0B590F82050F6
:100BF0000468A468012D07D0022D05D0416A41F494
:100C0000802141620120F0BD04F0806504F000669F
:100C1000354301D1E5005BD5C4F30164022C05D94D
:100C2000416A41F4000141620120F0BD0125A54067
:100C30001D608B684FF4C0759BB1CE6805EB04173F
:100C400033434E6843EAC6030668F3514FF4C27358
:100C5000076803EB04130E69FE50097D012909D0D2
:100C60000DE00E88CB6805EB041743EA465306688F
:100C7000F351EBE70168CE5846F48076CE501179F7
:100C8000D379567941EA036193791B0443EA062339
:100C900019434FF4C676036806EB04169951117890
:100CA000D37841EA0361937852781B0443EA022225
:100CB00011434FF4C473026803EB0413D15000686E
:100CC00005EB0411425842F0010242500020F0BDF1
:100CD000416A41F4001141620120F0BD10B590F865
:100CE0002020012A07D0022A05D0416A41F4802140
:100CF0004162012010BD3C4800F50070026842F0DE
:100D000001020260026822F47C52026002684B6AAF
:100D100042EA032202600A7D02F01F0301229A4088
:100D2000C3699343C361A0F50070CB69B3B9D0F830
:100D30000C329343C0F80C328C894B6864F31F4328
:100D40004C6900EBC404C4F840320C890B6864F3AE
:100D50001F434C6900EBC404C4F84432CB69012B37
:100D600016D1D0F80C321343C0F80C320C884B6803
:100D700064F31F434C6900EBC404C4F840320C898F
:100D8000CB6864F31F434C6900EBC404C4F84432DD
:100D90008B697BB1D0F804321343C0F804320B697D
:100DA00073B1D0F814321343C0F81432096A012920
:100DB0000CD010E0D0F804329343C0F80432EEE7D0
:100DC000D0F814329343C0F81432EFE7D0F81C1275
:100DD0001143C0F81C12D0F8001221F00101C0F834
:100DE0000012002010BD000000640040704730B5C4
:100DF00090F82040012C07D0022C05D0416A41F424
:100E000080214162012030BD21B104682469A4071A
:100E10005FD003E00468E468A40754D04FF4D874AA
:100E2000056804EB01142D5905F004059560F5B330
:100E300005682D59ED08556005682C5904F0020429
:100E4000D4604FF4DA74056804EB01142D5905F0F1
:100E50000F05156105682D59C5F3072595610568CE
:100E60002C59240C54614FF4DC72046802EB01121B
:100E7000A4581C700468A458240A5C700468A45820
:100E8000240C9C700468A258120EDA704FF4DE72C3
:100E9000046802EB0112A4581C710468A458240AC7
:100EA0005C710468A458240C9C71046800E016E08E
:100EB000A258120EDA71B9B10068016941F020013F
:100EC0000161002030BD416A41F4001141620120FE
:100ED00030BD416A41F400114162012030BD056816
:100EE0002D596D0D1560A7E70068C16841F020011C
:100EF000C160E6E72DE9F05F0546002428684669F1
:100F0000D0F804908768D0F80CA0D0F810B0D0F8D2
:100F10001880F10748D0F90714D001218160B80783
:100F200003D5284600F0C0FA0CE0780702D54FF44C
:100F3000006407E0380702D54FF4805402E02846E9
:100F400000F0B1FAF80516D529684FF48070886072
:100F5000B80503D5284600F0A9FA0CE0780502D5BB
:100F600044F4005407E0380502D544F4804402E01C
:100F7000284600F09AFAF80316D529684FF4803015
:100F80008860B80303D5284600F092FA0CE0780395
:100F900002D544F4004407E0380302D544F4803419
:100FA00002E0284600F083FA300707D55FEACA60FE
:100FB00004D544F4007429681020C86070074FF00D
:100FC000080707D55FEA0A7004D52868C760284675
:100FD00000F0B8F9B00706D52868C068800702D0CD
:100FE000284600F0B1F9700607D55FEACB6004D55A
:100FF00044F48064296810200861B00607D55FEAD0
:101000000B7004D528680761284600F01DFAF00629
:1010100006D528680069800702D0284600F015FA36
:10102000B00308D55FEAC96005D52968102048607B
:10103000284600F00BFAF00307D55FEA097004D5E3
:1010400028684760284600F034FA300446D55FEA45
:10105000497040D5F00504D55FEAC87001D044F06E
:101060000104B00504D55FEA887001D544F002049C
:10107000700504D55FEA487001D544F004043005DA
:1010800029D518F0700F26D008F07000402815D030
:1010900006DC102809D020280AD0302816D10AE012
:1010A00050280ED0602811D10EE044F008040DE065
:1010B00044F010040AE044F0200407E044F0400447
:1010C00004E044F0800401E044F4807428688169FD
:1010D00021F070018161296804204860002C05D04E
:1010E000686A204368622846FFF780FEBDE8F09FEB
:1010F00070B50446002C03D094F8200010B104E031
:10110000012070BD204600F09DF82068016841F084
:101110000101016000F070FB054605260CE000F0BF
:101120006BFB401B0A2807D9606A40F400306062FC
:1011300084F82060012070BD20684068C007EED0B0
:101140002068016821F00201016000F055FB0546AE
:101150000CE000F051FB401B0A2807D9606A40F4FC
:101160000030606284F82060012070BD2068406813
:101170008007EED4207E01283FD02068016821F04E
:1011800080010160607E01283DD02068016821F067
:1011900040010160A07E01283BD02068016821F059
:1011A00020010160E07E012839D02068016841F00B
:1011B00010010160207F012837D02068016821F0EC
:1011C00008010160607F012835D02068016821F0A6
:1011D00004010160D4E902010843D4E90412114377
:1011E00008436168491E08432168C86100206062A5
:1011F000012084F82000002070BD2068016841F0C3
:1012000080010160BEE72068016841F04001016093
:10121000C0E72068016841F020010160C2E7206852
:10122000016821F010010160C4E72068016841F005
:1012300008010160C6E72068016841F0040101600F
:10124000C8E700002DE9F04186B00446142101A84A
:10125000FFF75AF9364B374ADFF8D0801868216813
:10126000344C03260227401C103200254FF0090C95
:10127000414527D11860012807D1106840F000705F
:101280001060106800F000700090206840F00800C6
:101290002060206800F008000090019602970395F6
:1012A0000496CDF814C001A9234800F0B5F9002236
:1012B0000521142000F054FC142000F043FC06B07B
:1012C000BDE8F081DFF874804145F8D1116841F044
:1012D00080611160116801F080610091186001283F
:1012E00007D1106840F000701060106800F00070C6
:1012F0000090206840F002002060206800F00200AA
:10130000009060200190029703950496CDF814C0D8
:1013100001A90B4800F080F900220521402000F0CF
:101320001FFC402000F00EFCC9E7000000640040F4
:101330001000002030380240000C024000680040DD
:10134000000402407047000010B58AB03A49884254
:1013500044D101AB03AA0021FFF749FD0398A0F295
:101360000120072809D2DFE800F0040A1008272D21
:10137000330001A9314805F0A0FF0AB010BD2F4885
:1013800001A9183005F099FFF7E72C4CD83C207DD7
:10139000322807D201A9204605F088FF207D401C95
:1013A000207504E0254801A9D83805F086FF2348B8
:1013B000D83805F0A9FFE0E7204801A9303005F052
:1013C0007CFFDAE71D4801A9483005F076FFD4E735
:1013D0001A4801A9603005F070FFCEE7184988422D
:1013E000CBD101AB03AA0021FFF701FD03981549FA
:1013F000A0F201200828C0D2DFE800F004040404B1
:1014000010101010C0B208700C4900EB4000C03939
:1014100001EBC00001A905F050FFAEE70398401FA3
:10142000C0B24870054900EB4000603901EBC000D4
:1014300001A905F042FFA0E7F40300203C090020C9
:101440001C0400203000002070477047704770B5C2
:10145000044694F82000012805D0606A40F400207A
:101460006062012070BD022084F8200020680168BD
:1014700021F00101016000F0BFF905460DE000F028
:10148000BBF9401B0A2808D9606A40F4003060624A
:10149000052084F82000012070BD20684068C00746
:1014A000EDD1606270BD70477047704770477047FC
:1014B000704770472DE9F041044600F09DF905465C
:1014C0005CB1022084F83500002684F8346020687E
:1014D000016821F0010101600DE00120BDE8F0810B
:1014E00000F08AF9401B052805D9202060650320FB
:1014F00084F83500F2E720680068C007F0D1216861
:101500000A6820480240D4E901031843D4E90335AE
:101510002B43184363691843A3691843E3691843CD
:10152000236A18431043626A042A03D1D4E90B23C7
:101530001A43104308602068406920F00700656A7C
:1015400029460543012704290DD1A06A0543E06A15
:1015500048B12046FFF7ECFA28B14020606584F8D6
:1015600035700120BAE7206845612046FFF7CAFAC6
:1015700094F85C203F2191408160666584F8357065
:101580000020ABE73F8010F010B51B4C102818D09E
:10159000202825D0012813D107F0A4FA01280FD064
:1015A00004F12001606A07F0A5F8206A002807D03E
:1015B00012494FF080500860BFF34F8FBFF36F8F19
:1015C00010BD607840F001006070A07840F001002C
:1015D000A070E0780028F3D0BDE8104005F018BFF7
:1015E000207840F001002070E0780028E8D0BDE8C5
:1015F000104005F00DBF00006400002004ED00E085
:1016000010B504490A68024202D00860FFF7BCFF27
:1016100010BD0000143C01402DE9F84F0022DFF816
:101620009C914FF0010803274FF00F0C09F1040AB9
:10163000A9F1040B08FA02F50B682B40AB426ED1FE
:101640000C7904F00304012C01D0022C15D186681A
:10165000540007FA04FE26EA0E06D1F80CE00EFA52
:1016600004FE4EEA060EC0F808E04468AC430D796B
:10167000C5F300159540254345600C79E443A40764
:1016800008D0C568540007FA04F6B5438E68A64032
:101690002E43C6600C7904F00304022C11D1D40847
:1016A00000EB8406356A5407E40E0CFA04FE25EAC2
:1016B0000E05D1F810E00EFA04FE4EEA050EC6F84B
:1016C00020E00568540007FA04F6B5430E7906F0E9
:1016D0000306A6402E4306604C6814F4403F67D0D2
:1016E000374C256845F480452560246804F480441F
:1016F0000094344C22F003052E19D6F808589407AC
:101700004FEA147E0CFA0EF4A5432F4CA04201D1EF
:10171000002424E02D4CA04202D101241FE047E028
:101720002B4CA04201D1022419E02A4CA04201D145
:10173000032414E0284CA04201D104240FE0274CDC
:10174000A04201D105240AE0254CA04201D1062483
:1017500005E0244CA04201D1072400E0082404FA4B
:101760000EF42C43C6F80848D9F800409C434D6855
:10177000ED0200D51C43C9F80040DAF800409C4354
:101780004D68AD0200D51C43CAF80040DBF80040AC
:101790009C434D68AD0300D51C43CBF80040074D7A
:1017A000083D2C689C434E68F60300D51C432C6012
:1017B000521C102AFFF43EAFBDE8F88F083C0140F0
:1017C0004438024000300140000002400004024062
:1017D00000080240000C02400010024000140240C9
:1017E00000180240001C0240002A01D081617047AD
:1017F000090481617047000001488068704700005B
:101800001400002070B50446002C04D094F83D006C
:10181000002510B106E0012070BD84F83C50204640
:1018200000F0BCF8242084F83D002068016821F015
:10183000010101602068016841F4004101602068F5
:10184000016821F40041016000F086FA4F4B6168A5
:10185000994203D84E49884203D304E04D49884257
:1018600001D2012070BD4C49B0FBF1F122685668ED
:1018700026F03F060E43566062689A4201D8491C22
:1018800007E04FF4967251434FF47A72B1FBF2F1D4
:10189000491C2268166A26F03F06314311626168CE
:1018A000994210D84900401EB0FBF1F2521CC2F31D
:1018B0000B02042A01D2042022E0B0FBF1F0401C0C
:1018C000C0F30B001CE0A268F2B301EBC10303EB11
:1018D0000116431EB3FBF6F35B1C43F480431B0568
:1018E00049D092B301EBC10202EB0111401EB0FBE3
:1018F000F1F0401CC0F30B0040F4804040F4004085
:101900002168CA694CF6FF739A431043C861D4E951
:10191000071001432068026822F0C00211430160F1
:10192000D4E9030101432068826848F2FF339A43F7
:1019300011438160D4E9051001432068C26822F098
:10194000FF021143C16001E00EE016E0206801686B
:1019500041F0010101602564202084F83D002563E9
:1019600084F83E50002070BD01EB4106431EB3FBDE
:10197000F6F35B1CB3E70120C2E701EB4101401E17
:10198000B0FBF1F0401CC0F30B00B7E7A0860100EC
:1019900080841E0000093D0040420F00F0B587B072
:1019A0000446142102A8FEF7AFFD1D4920688842B5
:1019B00033D11C48016841F004010160016801F065
:1019C00004010191016841F001010160006800F02B
:1019D000010001904FF40070029012270397012438
:1019E0000494032605960425069502A90E48FFF7E0
:1019F00013FE20020290039704940596069502A90F
:101A00000A48FFF709FE07481030016841F4000159
:101A10000160006800F40000019007B0F0BD000014
:101A2000005C0040303802400008024000000240E4
:101A300002488168027811448160704714000020D8
:101A400010B50B48016841F400710160016841F470
:101A500080610160016841F480710160032000F041
:101A60009FF80F2000F006F800F050F8002010BD9D
:101A7000003C024030B587B0054600241E4801688E
:101A800041F480710160006800F48070009001A949
:101A900002A800F03DF90598A8B100F05DF94000FA
:101AA0001649B0FBF1F1491E1648154A026040F292
:101AB000E732C260416004618460846100F0D0FD5F
:101AC00004461CB115E000F047F9E9E70D4800F0C5
:101AD00083FE04466CB92D2000F034F8102D07D297
:101AE000002229462D2000F03BF80748056000E061
:101AF000012407B0204630BD4038024040420F006C
:101B000000200040BC0700201800002082B00C48D4
:101B1000016841F480410160006800F48040019058
:101B20000748001F016841F080510160006800F023
:101B30008050019000220F21901E02B000F010B8DA
:101B400044380240002809DB00F01F0201219140C7
:101B50004009800000F1E020C0F80011704700004B
:101B6000F0B40D460D4B1B68C3F30223C3F1070409
:101B7000042C00D90424191D072901D2002300E0F8
:101B8000DB1E012606FA04F1491E294099409E40B9
:101B9000761E16403143F0BC04F032B90CED00E083
:101BA00000F00701054A10684FF6FF03184040EAAD
:101BB0000120034908431060704700000CED00E06D
:101BC0000000FA052DE9F04704460D46002C13D01D
:101BD000DFF82891D9F80000EFB200F00700A84222
:101BE0000CD289F80070D9F8000000F00700A84274
:101BF00004D00120BDE8F0870120FBE72068404EBB
:101C0000810712D5400703D5306840F4E0503060BA
:101C10002078000703D5306840F4604030603068B9
:101C2000A16820F0F000084330602078C00731D070
:101C3000334960680839012808D002280BD00328EE
:101C400009D0096889070BD40120D3E70968890303
:101C500006D40120CEE70968890101D40120C9E733
:101C6000316821F0030101433160FFF7C5FD804673
:101C700041F2883A07E0FFF7BFFDA0EB08005045AE
:101C800001D90320B6E73068616800F00C00B0EBC2
:101C9000810FF0D1D9F8000000F00700A84209D95F
:101CA00089F80070D9F8000000F00700A84201D0C0
:101CB00001209FE72078400705D53068E16820F4CF
:101CC000E050084330602078000706D5306821696D
:101CD00020F4604040EAC100306000F05DF83168F7
:101CE000084AC1F30311515CC8400749086007481E
:101CF0000068FFF7BFFE00207CE70000003C0240C8
:101D000008380240409500082000002018000020FC
:101D10000F2202600B4A136803F003034360136849
:101D200003F0F0038360136803F4E053C3601268A8
:101D300002F46042D20802610348006800F0070024
:101D40000860704708380240003C024001480068C3
:101D5000704700002000002000B5FFF7F7FF04499E
:101D60000968044AC1F38221515CC84000BD0000EB
:101D7000083802405095000800B5FFF7E7FF044916
:101D80000968044AC1F34231515CC84000BD0000FB
:101D9000083802405095000810B51748006810F048
:101DA0000C01164816D0164B042912D0082911D15F
:101DB000114C241F216801F03F02216849020AD515
:101DC0002068C0F38810A0FB03010023FEF7CCFAC3
:101DD00009E0184610BD21680023C1F38811A1FB5A
:101DE0000001FEF7C1FA2168C1F30141491C490015
:101DF000B0FBF1F010BD0000083802400024F400F0
:101E0000001BB7002DE9F84F0446002C13D02078B2
:101E1000DFF8A083C007A8F1040556D008F104003C
:101E20000168C1F3810101290CD00068C0F3810071
:101E3000022803D00DE00120BDE8F88FD8F800009B
:101E4000400206D5286880033FD5606870BB01203A
:101E5000F2E76068B0F5803F10D0B0F5A02F12D047
:101E6000286820F480302860286820F480202860CA
:101E70006068E0B1FFF7C0FC064614E0286840F453
:101E800080302860F4E7286840F4802028602868C3
:101E900040F480302860EBE7FFF7AEFC801B64283D
:101EA00001D90320C8E728688003F5D50DE0FFF7C6
:101EB000A3FC064606E0FFF79FFC801B642801D9BF
:101EC0000320B9E728688003F5D42078BA4F80074B
:101ED0004FF0000948D5B748001D016811F00C0FFC
:101EE00008D00068C0F38100022813D1D8F80000A0
:101EF00040020FD42868800704D5E068012801D08B
:101F0000012099E72868216920F0F80040EAC10023
:101F1000286029E0E068B8B101203860FFF76CFC68
:101F2000064606E0FFF768FC801B022801D9032063
:101F300082E728688007F5D52868216920F0F80035
:101F400040EAC10028600FE0C7F80090FFF754FC9A
:101F5000064606E0FFF750FC801B022801D903204B
:101F60006AE728688007F5D42078000729D5DFF8CC
:101F700044A2924861690AF1700A89B101210160A5
:101F8000FFF73AFC064606E0FFF736FC801B022806
:101F900001D9032050E7DAF800008007F4D510E0FB
:101FA000C0F80090FFF728FC064606E0FFF724FC87
:101FB000801B022801D903203EE7DAF800008007E1
:101FC000F4D42078400778D54FF0000A79483C30A7
:101FD0000068C0000BD477483C30016841F0805164
:101FE0000160006800F0805000904FF0010ADFF8B7
:101FF000D0B1DBF80000C00514D4DBF8000040F4D9
:102000008070CBF80000FFF7F7FB064606E0FFF70D
:10201000F3FB801B022801D903200DE7DBF8000049
:10202000C005F4D5634EA0686C3601280FD0052892
:1020300012D0306820F001003060306820F00400D9
:102040003060A068F8B1FFF7D7FB834617E030682F
:1020500040F001003060F4E7306840F00400306088
:10206000306840F001003060EBE7FFF7C5FBA0EB04
:102070000B0141F28830814201D90320DCE630684F
:102080008007F2D510E0FFF7B7FB834609E0FFF7C2
:10209000B3FBA0EB0B0141F28830814201D9032050
:1020A000CAE630688007F2D4BAF1010F05D1414881
:1020B0003C30016821F080510160A069C0B33D4906
:1020C000091D09684FF0FF36C1F38101022946D08E
:1020D000022805D0C7F86090FFF78EFB04463AE06F
:1020E000C7F86090FFF788FB814607E0FFF784FBA5
:1020F000A0EB0900022801D903209DE62868800191
:10210000F4D4D4E907010843616AA26A890106EBA5
:10211000520241EA0241084394F82C1040EA01605F
:10212000C8F8000001203866FFF766FB044607E0A8
:102130003DE0FFF761FB001B022801D903207BE68D
:1021400028688001F5D532E0FFF756FB001B022816
:1021500001D9032070E628688001F5D427E0012822
:1021600023D0D8F80000E26900F4800191421AD12E
:10217000226A00F03F01914215D147F6C071626AB0
:102180000140B1EB821F0ED1A26A00F4403106EB90
:102190005202B1EB024F06D194F82C1000F070609F
:1021A000B0EB016F03D0012046E6012044E6002099
:1021B00042E600000438024000004742800E4742D9
:1021C0000070004070B50446002C09D0606A0025FC
:1021D00040B125616561A56294F8510040B10CE001
:1021E000012070BD6068B0F5827FF4D0E561F2E750
:1021F00084F85050204600F045F8022084F8510041
:102200002068016821F040010160A088218900F464
:10221000827001F404410843A18901F4006108437C
:10222000217C01F002010843217D01F001010843F6
:10223000218B01F400710843217F01F0380108432C
:1022400094F8201001F080010843218D01F4005121
:10225000084321680860A069042101EA104094F84D
:10226000241001F010010843216848602068C1690A
:1022700021F40061C1616565012084F851000020EE
:1022800070BD00002DE9F04387B00546142102A877
:10229000FEF73AF93949286888426CD10026384857
:1022A000016841F480510160006800F480500190A1
:1022B00033481438016841F002010160016801F0FF
:1022C00002010191016841F001010160006800F024
:1022D00001000190182002904FF00208CDF80C8008
:1022E0004FF00109CDF810900324059405270697B7
:1022F00002A92448FFF790F980200290CDF80C80C5
:10230000CDF810900594069702A91F48FFF784F9AD
:102310001F4C1E4820604FF0C068C4F80480A660BF
:10232000E660071527616661A661E6614FF44030FB
:10233000206266622046FFF7BDF808B1FEF741FC57
:10234000EC64A5631148124C183060342060C4F866
:1023500004804020A060E66027616661A661E661B6
:10236000C002206266622046FFF7A4F808B1FEF7BB
:1023700028FCAC64A56307B0BDE8F08300300140E1
:102380004438024000040240000002404064024021
:10239000F00400202DE9F84F04460A9E8A46934631
:1023A0001F4601254FF0000894F8500001280ED078
:1023B000012084F85000FFF71FFA814694F851007D
:1023C000616801280DD0B1F5827F07D102E00220BB
:1023D000BDE8F88FA16809B9042802D04FF00208BF
:1023E000C3E0BAF1000F28D0BBF1000F25D03800B0
:1023F00023D094F85100042802D0052084F851001D
:1024000000206065C4F838B0E787A787C4F830A01B
:10241000E786A7862064606420680168490603D4C3
:10242000016841F040010160E068B0F5006F07D03D
:102430006068E8B3012F48D07DE04FF0010894E0D8
:10244000606808B1012F39D1206B21680088C8600D
:10245000206B801C2063E08E401EE0862EE020680A
:10246000816889070DD5E18E59B1012D09D1216B04
:102470000988C160206B801C2063E08E401EE086CE
:10248000002520688168C9070BD0E18F49B1C06879
:10249000A16B0880A06B801CA063E08F401EE087CA
:1024A0000125FFF7A9F9A0EB0900B04206D300E02F
:1024B0000BE0701C02D04FF0030856E0E08E0028BD
:1024C000CDD1E08F0028CAD13BE0206B2168007895
:1024D0000873206B401C2063E08E401EE0862AE0DB
:1024E0002068816889070DD5E18E59B1012D09D188
:1024F000216B09780173206B401C2063E08E401E25
:10250000E086002520688168C9070BD0E18F49B1BA
:10251000C068A16B0870A06B401CA063E08F401ED8
:10252000E0870125FFF768F9A0EB0900B04201D36D
:10253000701C11D186B1E08E0028D1D1E08F002827
:10254000CED14A463146204603F0E0F838B14FF08C
:1025500001082020606508E04FF0030805E0A0684E
:1025600018B92068C16880680090012050346070FC
:102570000020207040462BE77047704710B590F858
:102580003C20012A22D0012280F83C20CA68002386
:102590008C6822F4407222434C6822F48062224309
:1025A0000C6822F4006222430C6922F48052224318
:1025B0004C6922F400522243C96922F480420A4342
:1025C00001684A6480F83C30002010BD022010BD34
:1025D00070B590F83C20012A31D0012680F83C608B
:1025E000022280F83D2002685468936824F0700548
:1025F0000C682C435460134C0268A24214D0B2F110
:10260000804F11D0104CA2420ED0104CA2420BD0E1
:102610000F4CA24208D00F4CA24205D00E4CA24251
:1026200002D00E4CA24204D123F080034968194322
:1026300091603C30467000210170002070BD022086
:1026400070BD000000000140000400400008004090
:10265000000C004000040140004001400018004010
:1026600010B50446002C03D094F83D0010B107E0EB
:10267000012010BD002084F83C00204600F016F830
:10268000022084F83D00211D206803F041F901205B
:102690003D3460726070A070E07020716071A07154
:1026A000E07120722070002010BD000008B50068A5
:1026B000234A2449904208D1086840F0010008608C
:1026C000086800F00100009008BD1E4A1E4B121F52
:1026D000984208D1106840F004001060106800F0C3
:1026E0000400009008BD194B984208D1106840F0D2
:1026F00008001060106800F00800009008BD144A3F
:10270000904211D1086840F002000860086800F0AB
:102710000200009000220F212D20FFF721FABDE8D2
:1027200008402D20FFF70EBA0A4A9042E6D1086809
:1027300040F400300860086800F40030009008BDE4
:10274000000001404438024000080040000C0040F6
:10275000000401400044014090F83D10012901D0DF
:1027600001207047022180F83D100068134988421B
:1027700014D0B0F1804F11D0114988420ED01149C8
:1027800088420BD01049884208D01049884205D0B1
:102790000F49884202D00F49884209D1816801F06F
:1027A0000701062908D0016841F00101016003E03A
:1027B000016841F001010160002070470000014004
:1027C0000004004000080040000C004000040140EC
:1027D000004001400018004090F83D10012901D050
:1027E00001207047022180F83D100168CA6842F05C
:1027F0000102CA6000681449884214D0B0F1804FC9
:1028000011D0124988420ED0114988420BD011498B
:10281000884208D01049884205D01049884202D029
:102820000F49884209D1816801F00701062908D0C3
:10283000016841F00101016003E0016841F001011C
:1028400001600020704700000000014000040040CB
:1028500000080040000C004000040140004001401E
:102860000018004070B50446002594F83C0001288B
:1028700017D0012684F83C60022084F83D002068CF
:10288000826822F0770222F47F4282600868502832
:1028900038D00DDC202853D005DC90B3102811D19E
:1028A0004EE0022070BD30284AD040280AD13DE0D9
:1028B000602831D070280CD0B0F5805F03D0B0F51F
:1028C000005F12D001253C3466700020207028463D
:1028D00070BDCB68D1E90121206803F08CF8206835
:1028E000816841F077018160EDE7CB68D1E9012192
:1028F000206803F080F82068816841F4804181609D
:10290000E1E71DE0CA684968206803F057F95021E3
:10291000206803F07AF8D6E7CA684968206803F0AF
:102920005EF96021206803F070F8CCE7CA68496856
:10293000206803F043F94021206803F066F8C2E7FD
:1029400022680146104603F060F8BCE7704770B596
:102950000446206801694FF00005C943890716D471
:10296000C168C943890712D4E91E0161012020779B
:1029700020688069800703D02046FFF7E7FF05E065
:10298000204600F043F9204600F0D3F9257720686F
:102990000169C943490718D4C168C943490714D418
:1029A0006FF004010161022020772068806910F433
:1029B000407F03D02046FFF7C9FF05E0204600F026
:1029C00025F9204600F0B5F9257720680169C9434B
:1029D000090717D4C168C943090713D46FF0080168
:1029E0000161042020772068C069800703D0204659
:1029F000FFF7ACFF05E0204600F008F9204600F0A4
:102A000098F9257720680169C943C90618D4C168B7
:102A1000C943C90614D46FF0100101610820207762
:102A20002068C06910F4407F03D02046FFF78EFF76
:102A300005E0204600F0EAF8204600F07AF9257714
:102A400020680169C943C90708D1C168C943C907DA
:102A500004D1891E0161204600F0DAF9206801697D
:102A6000C943090609D4C168C943090605D46FF0F2
:102A7000800101612046FFF77FFD20680169C9439D
:102A8000490609D4C168C943490605D46FF040011D
:102A90000161204600F0C6F920680169C943890632
:102AA0000BD4C168C943890607D46FF020010161C6
:102AB0002046BDE87040FFF760BD70BDF0B587B03F
:102AC0000446142102A8FDF71FFD444A2068002493
:102AD00043490225904215D1086840F01000086073
:102AE000086800F0100001904FF428500290039500
:102AF000049405940120069002A93A48FEF78CFD43
:102B000007B0F0BD384A904212D1086840F0080082
:102B10000860086800F00800019010140290039506
:102B200004940594069502A93048FEF775FDE7E781
:102B30002F4A904213D1086840F08000086008686E
:102B400000F0800001904FF4E0500290039504944F
:102B50000595069502A92748FEF75EFDD0E7264AAF
:102B600003264027904223D1086840F48070086013
:102B7000086800F480700190086840F00400086064
:102B8000086800F004000190C020029003950494AE
:102B90000594069602A91948FEF73EFD0297039593
:102BA00004940594069602A91548FEF735FDA7E79B
:102BB000144A9042A4D1086840F0200008600868D8
:102BC00000F0200001900297039504940595069665
:102BD00002A90D48FEF720FD92E700000000014029
:102BE000303802400010024000080040000C024053
:102BF000000C0040001C0240000401400020024084
:102C0000000802400044014000140240704770B5C3
:102C100004460D46002694F83C0001280FD0012000
:102C200084F83C006AB1042A1FD0082A32D00C2A4A
:102C300044D00126002084F83C00304670BD0220BC
:102C400070BD2946206802F0E9FE2068816941F0E4
:102C5000080181612068816921F004018161206897
:102C600081692A6911438161E4E72946206802F0FD
:102C700009FF2068816941F40061816120688169F0
:102C800021F480618161206881692A6941EA022119
:102C90008161CFE72946206802F02EFF2068C169D4
:102CA00041F00801C1612068C16921F00401C161DE
:102CB0002068C1692A691143C161BBE729462068C0
:102CC00002F052FF2068C16941F40061C1612068CF
:102CD000C16921F48061C1612068C1692A6941EA42
:102CE0000221C161A6E710B50446002C03D094F878
:102CF0003D0010B107E0012010BD002084F83C0029
:102D0000204600F015F8022084F83D00211D2068BF
:102D100002F0FEFD01203D3460726070A070E07032
:102D200020716071A071E07120722070002010BDD0
:102D30007047704710B50446002909D004290AD00D
:102D400008290BD094F8410001280AD0012010BDB9
:102D500094F83E00F8E794F83F00F5E794F8400057
:102D6000F2E70220A9B3042937D0082938D084F823
:102D700041000122206802F031FE1E4920681E4AEF
:102D8000884201D0904203D1436C43F40043436432
:102D90002068884213D0B0F1804F10D01749884284
:102DA0000DD0174988420AD01649884207D0904270
:102DB00005D01549884202D01449884213D1816850
:102DC00001F00701062912D0016841F001010160FC
:102DD0000DE0FFE784F83E00CBE784F83F00C8E74A
:102DE00084F84000C5E7016841F00101016000205E
:102DF00010BD00000000014000040140000400403C
:102E000000080040000C0040004001400018004055
:102E100000680349884201D1FEF70ABE70470000EE
:102E200000200040704770B50446002C04D094F890
:102E30003D00002510B106E0012070BD84F83C5033
:102E4000204600F023F8242084F83D002068C16863
:102E500021F40051C160204602F0D4FE20680169CF
:102E600021F4904101612068416921F02A0141610A
:102E70002068C16841F40051C1602564202084F8B5
:102E80003D0084F83E00002070BD000070B586B0A3
:102E90000646142101A8FDF737FB25493068884212
:102EA00043D100252348016841F480210160006876
:102EB00000F4802000901F481038016841F00401A0
:102EC0000160006800F0040000904FF44060019041
:102ED000022002900395032004900720059001A989
:102EE0001548FEF799FB164C144820604FF000601F
:102EF0006060A560E560401420616561A561801097
:102F0000E0614FF44030206265622046FEF7D2FA5D
:102F100008B1FDF756FEB463A66300220521272001
:102F2000FEF71EFE2720FEF70DFE06B070BD000066
:102F3000004800404038024000080240286002403B
:102F40005C070020FEE700002DE9F0412DED048B29
:102F5000002544F6206743E0254AA2F11006311D02
:102F6000101DFDF72BFC706906F032FA9FED218BE6
:102F700053EC182B05F0B4FF06F1780441EC190B63
:102F8000206806F025FA53EC192B06F037F905F006
:102F900085FE2060B06906F01BFA53EC182B05F093
:102FA0009FFF41EC190B606806F012FA53EC192BE5
:102FB00006F024F905F072FE6060F06906F008FA88
:102FC00053EC182B05F08CFF41EC180BA06806F0B1
:102FD000FFF953EC182B06F011F905F05FFEA06025
:102FE00028466D1CB842B7DBBDEC048BBDE8F08110
:102FF000C80B00202D431CEBE2360A3F1CB507200E
:1030000004F040FB02E0642004F03CFBFDF7BEFB53
:103010000028F8D1814A101DCDE90002A2F1100666
:10302000311DFDF7CBFBFFF78FFF3246A2F14001C8
:10303000A1F10C0004F09AF9794890ED021AD0ED54
:10304000010A90ED000A9FED772ADFED771A002143
:1030500006F1300000F046FEA6F13402A2F10C01A8
:1030600001F11800FDF7E6FAA6F14009A6F15808AB
:1030700099ED000AA6F1640588ED000AA5F10C0A95
:1030800085ED000A8AED000A99ED010A88ED010A32
:1030900085ED010A8AED010A99ED020A88ED020A1E
:1030A00085ED020A8AED020A002004F025FB05F0F6
:1030B000D5FC5B4F903F78625C491020C8610846A0
:1030C000FFF780F808B1FDF77CFD554908225C390F
:1030D000A1F1080002F094FA0120F8704FF0FF3BD4
:1030E0005946012005F0ACF90128F9D1387840079C
:1030F00008D5387820F004003870494800995B38CA
:10310000FDF714FB787840070AD5787820F00400A2
:103110007870424A311D1032A2F12A00FDF7BCFA44
:10312000B87840070CD5B87820F00400B8703C4857
:1031300001996638FDF71EFC96ED040A04F0F2F9D9
:10314000364A103AA2F14001A1F10C0004F00EF948
:1031500095ED000A8AED000AD8ED000AC5ED000AD7
:103160009FED331A9FED333ADFED333A60EE811A6B
:1031700040EE031A99ED000A40EE231AC8ED001A3A
:1031800095ED010A8AED010AD8ED010AC5ED010AA3
:1031900020EE812A00EE032A99ED010A00EE232A8F
:1031A00088ED012A95ED020A8AED020AD8ED020A9D
:1031B000C5ED020A60EE812A40EE032A99ED020A6B
:1031C00040EE232AC8ED022A14485C3890ED021A1A
:1031D000D0ED010A90ED000A243000F0BBFB0F4B4C
:1031E000203BA3F108042146221DA1F1100003F0A9
:1031F000D1FFD4ED020A9FED110A60EE800AC4ED02
:10320000020AD4ED010A60EE800AC4ED010AD4ED91
:10321000000A20EE800A84ED000A61E7C80B002056
:10322000F40000200080894500A08C45980400200F
:103230005AF8F63F5D896EBFD5A9183B55DE8E3C26
:1032400010B50F480D4901600321416000218160E4
:10325000C1604FF4102202614FF400124261017606
:1032600041768176C17601774177FDF741FF0028ED
:1032700003D0BDE81040FDF7A4BC10BD00640040C1
:10328000F403002010B50F480D490160032141608F
:1032900000218160C1604FF4102202614FF40012DE
:1032A0004261017641768176C17601774177FDF7FB
:1032B0001FFF002803D0BDE81040FDF782BC10BD01
:1032C000006800401C04002008B51548016841F45E
:1032D00000110160016801F400110091016841F4DE
:1032E00080010160006800F4800000900022052148
:1032F0000C20FEF735FC0C20FEF724FC00220521F3
:103300003A20FEF72DFC3A20FEF71CFC0022052196
:103310003B20FEF725FCBDE808403B20FEF712BC31
:103320003038024010B59CB01C22164915A8FDF794
:10333000B1F8002115A804F0B2F9134C20601C224A
:1033400010491C310EA8FDF7A5F800210EA804F0C5
:10335000A6F960601C220B49383107A8FDF79AF8DE
:10336000002107A804F09BF9A0601C2205495431F4
:103370006846FDF78FF80021684604F090F9E06098
:103380001CB010BDC8940008000000202DE9F041D9
:1033900086B0142101A8FDF7B7F85648016841F03E
:1033A00002010160016801F002010091016841F031
:1033B00001010160016801F001010091016841F023
:1033C00008010160016801F008010091016841F005
:1033D00004010160016801F004010091016841F4F9
:1033E00080710160016801F480710091016841F011
:1033F00080010160016801F080010091016841F0E5
:1034000040010160016801F040010091016841F054
:1034100020010160016801F020010091016841F084
:1034200010010160006800F010000090324E01228F
:1034300040213046FEF7D8F9304F0122102138469E
:10344000FEF7D2F9DFF8B880012211464046FEF7B8
:10345000CBF940200190012402940394049401A923
:103460003046FEF7D9F8092001904FF488150295EF
:10347000039401A93046FEF7CFF810200190029482
:1034800003940226049601A93846FEF7C5F83020B9
:1034900001900295039401A91A48FEF7BDF8019422
:1034A00002940394049601A94046FEF7B5F8002261
:1034B00005210620FEF754FB0620FEF743FB002201
:1034C00005210920FEF74CFB0920FEF73BFB0022FB
:1034D00005210A20FEF744FB0A20FEF733FB0022F9
:1034E00005211720FEF73CFB1720FEF72BFB06B04B
:1034F000BDE8F08130380240001802400000024070
:10350000000402400008024010B50D480B4901605C
:103510000C49416000218160C1604FF4804202612A
:1035200041618161C1610162FEF76CF9002803D03D
:10353000BDE81040FDF745BB10BD0000005C004039
:1035400044040020801A060010B510480E4901609E
:103550004FF48271416000218160C16002220261EA
:1035600001224261520282613822C26101624162DB
:1035700081620A21C162FEF725FE002803D0BDE862
:103580001040FDF71EBB10BD003001409804002024
:1035900010B588B01C2101A8FCF7B6FF14481349E8
:1035A000016000244460846041F28731C16004619D
:1035B0008461FFF755F808B1FDF703FB0C48FFF7EE
:1035C00092FB08B1FDF7FDFA60200190029403948C
:1035D0000594002201A90648FFF719FB08B1FDF781
:1035E000F0FA0348FFF76AFA08B010BD0044014042
:1035F000D006002010B596B00024129413941494B1
:103600001594109411941C2109A8FCF77DFF20212A
:1036100001A8FCF779FF30482E490160A7214160DD
:10362000846044F61F61C160046144618461FFF7F6
:1036300017F808B1FDF7C5FA4FF48050129012A99F
:103640002548FFF70FF908B1FDF7BBFA2248FFF74D
:103650004AFB08B1FDF7B5FA1094119410A91E4861
:10366000FEF7B6FF08B1FDF7ACFA602009900A94A6
:103670000B940C940D940E940F94002209A91648F3
:10368000FFF7C5FA08B1FDF79CFA042209A9124810
:10369000FFF7BDFA08B1FDF794FA082209A90E4810
:1036A000FFF7B5FA08B1FDF78CFA01940294039480
:1036B000049405944FF400500690089401A906481C
:1036C000FEF75CFF08B1FDF77CFA0348FFF7F6F957
:1036D00016B010BD00000140B005002010B58EB03E
:1036E00000240A940B940C940D94089409941C21C2
:1036F00001A8FCF709FF1E481C4901604460846072
:1037000045F20721C16004618461FEF7A9FF08B199
:10371000FDF757FA4FF480500A900AA91448FFF7B2
:10372000A1F808B1FDF74DFA1148FFF7DCFA08B12E
:10373000FDF747FA0894099408A90D48FEF748FFD9
:1037400008B1FDF73EFA60200190029403940594BD
:10375000082201A90648FFF75AFA08B1FDF731FA25
:103760000348FFF7ABF90EB010BD000000080040A1
:10377000F805002010B58EB000240A940B940C9428
:103780000D94089409941C2101A8FCF7BDFE26485D
:1037900024490160446084604FF6FF71C160046198
:1037A0008461FEF75DFF08B1FDF70BFA4FF480501E
:1037B0000A900AA91C48FFF755F808B1FDF701FA6D
:1037C0001948FFF790FA08B1FDF7FBF9089409943E
:1037D00008A91548FEF7FCFE08B1FDF7F2F96020D4
:1037E0000190029403940594002201A90E48FFF76A
:1037F0000EFA08B1FDF7E5F9042201A90A48FFF71E
:1038000006FA08B1FDF7DDF9082201A90648FFF71D
:10381000FEF908B1FDF7D5F90348FFF74FF90EB0EF
:1038200010BD0000000C00404006002010B596B00E
:1038300000241294139414941594109411941C2140
:1038400009A8FCF761FE202101A8FCF75DFE3048C5
:103850002E490160A7214160846044F61F61C16068
:10386000046144618461FEF7FBFE08B1FDF7A9F92C
:103870004FF48050129012A92548FEF7F3FF08B1CB
:10388000FDF79FF92248FFF72EFA08B1FDF799F9E5
:103890001094119410A91E48FEF79AFE08B1FDF786
:1038A00090F9602009900A940B940C940D940E9456
:1038B0000F94002209A91648FFF7A9F908B1FDF7EE
:1038C00080F9042209A91248FFF7A1F908B1FDF710
:1038D00078F9082209A90E48FFF799F908B1FDF710
:1038E00070F9019402940394049405944FF40050E9
:1038F0000690089401A90648FEF740FE08B1FDF7BE
:1039000060F90348FFF7DAF816B010BD0004014073
:103910008806002010B50D480B4901600C49416034
:1039200000218160C1604FF4806202610422426123
:103930008161C161FFF777FA002803D0BDE810402C
:10394000FDF73FB910BD00000048004018070020F7
:10395000A086010000B50246B0EE403AF0EE603AB3
:10396000B0EE414AF5EEC01AF1EE10FA09D1B5EE0B
:10397000C02AF1EE10FA04D1F5EEC02AF1EE10FAE9
:1039800078D021EEA10A02EE020A02EEA20A03F0AA
:1039900011FE61EE804A22EE005A62EE802A92ED1C
:1039A000012A92ED030AD2ED000A92ED021A62EEAC
:1039B000001A40EEC11A20EE822A01EE002AB6EE6D
:1039C000001A10EEA01A00EE001A25EE010A02EE0F
:1039D000C20A62EEA10A44EEC10A24EE821A05EE82
:1039E000611A5348D0ED041AF5EEC01AF1EE10FA40
:1039F0002CDDD0ED041A90ED052A61EE802ADFED72
:103A00004D1A02EEA12A80ED052A90ED042A62EEFD
:103A1000202A90ED062A02EEA12A80ED062A90EDDA
:103A2000042A62EE012A90ED072A02EEA12A80ED17
:103A3000072AD0ED051A33EE213AD0ED061A73EEBF
:103A4000A13AD0ED071A34EE214A07E0DFED3A1A29
:103A5000C0ED051AC0ED061AC0ED071AD0ED031A25
:103A600001EE803A90ED030A40EE203A90ED030A11
:103A700000EE014A9FED311A23EE010A63EE810A3E
:103A800024EE011AD2ED001A92ED012AD2ED022A9B
:103A9000B1EE423A63EE003A92ED033A42EEE03A7A
:103AA00043EE413A73EEA14AC2ED004A61EE803A1C
:103AB00042EE813A43EE603A73EE823AC2ED013A49
:103AC00021EEA04A02EE414A03EE004A34EE224AB9
:103AD00082ED024A21EE811A02EE201A02EEC01A8D
:103AE00071EE030AC2ED030A24EEA40A03EEA30A50
:103AF00004EE040A00EEA00A03F05CFDD2ED000A19
:103B000060EE800AC2ED000AD2ED010A60EE800A82
:103B1000C2ED010AD2ED020A60EE800AC2ED020A8D
:103B2000D2ED030A20EE800A82ED030A00BD0000F8
:103B3000640000206F12833A000000006F12033A05
:103B4000FEE7FEE7002814D0D0ED101AC0ED111AE0
:103B500090ED0F1A80ED101AC0ED060A80ED070AED
:103B600030EEC00A80ED0F0A017829B1012952D048
:103B700092E09FED4B0A7047D0ED010A60EE801A8B
:103B8000C0ED091AD0ED0A0A90ED022A42EE000AB1
:103B9000C0ED0A0A90ED0D2A80ED0E2A90ED0C2A58
:103BA00080ED0D2A30EE410A80ED0C0A90ED031AEB
:103BB00021EE001A80ED0B1A90ED050AF4EEC00A12
:103BC000F1EE10FA02DD80ED0A0A08E0B1EE400ADB
:103BD000F4EEC00AF1EE10FA01D280ED0A0A90ED7F
:103BE0000A0A31EE800A30EE010A80ED080AD0EDB3
:103BF000040AB4EEE00AF1EE10FA02DDC0ED080AA4
:103C00004AE0F1EE600AB4EEE00AF1EE10FA43D2B7
:103C1000C0ED080A40E070EE410A90ED012A60EE26
:103C2000820AC0ED090A90ED022A22EE002A80EDF8
:103C30000A2AD0ED0D2AC0ED0E2AD0ED0C2AC0EDD7
:103C40000D2AF0EE002A01EE620A30EE210A80ED24
:103C50000C0A90ED031A21EE000A80ED0B0A70EEBB
:103C6000820A30EE800AD0ED080A30EE200A80ED9C
:103C7000080AD0ED040AB4EEE00AF1EE10FA02DD13
:103C8000C0ED080A08E0F1EE600AB4EEE00AF1EED9
:103C900010FA01D2C0ED080A90ED080A7047000042
:103CA00000000000002819D09FED0D0A80ED110AD8
:103CB00080ED100A80ED0F0A80ED0E0A80ED0D0AEE
:103CC00080ED0C0A80ED0B0A80ED0A0A80ED090AEE
:103CD00080ED080A80ED060A80ED070A70470000B3
:103CE00000000000002820D0017080ED010AC0ED26
:103CF000020A80ED031AC0ED041A80ED052A9FED3B
:103D00000B0A80ED0E0A80ED0D0A80ED0C0A80EDA5
:103D1000080A80ED0B0A80ED0A0A80ED090A80EDA1
:103D2000110A80ED100A80ED0F0A704700000000B4
:103D300030B5174C23685D6945F040055D61236827
:103D4000DC6844F01004DC60124C23681D6825F028
:103D500001051D6003E01D6825F001051D60236855
:103D60001D68ED07F7D125680B4BAB602368D86061
:103D700020680161206842602068016841F4802168
:103D800001602068016841F00101016030BD000060
:103D9000180700205C0700200448004010B50446C6
:103DA000002C05D000202070607003F09BFA60604A
:103DB00010BD00002DE9F74F82B0F749086802688E
:103DC00022F001020260F54A1068036823F0010343
:103DD000036003E0016821F001010160EE48006822
:103DE0000168C907F6D103E0016821F00101016013
:103DF000EA4800680168C907F6D1E948E94AEA4B90
:103E0000C06C0190E74CE84DE64EE74F0068DFF8E4
:103E100094B3DFF890C3E449483A60331834183556
:103E2000303E78374FF400680CF1300C58454CD9CF
:103E3000884201D1202041E0904201D120203DE084
:103E4000984201D1202039E0A04201D1202035E064
:103E5000A84201D1404631E0B04201D140462DE0B8
:103E6000B84201D1404629E0604501D1404625E0F5
:103E7000DFF8349309F13009484502D14FF40010BE
:103E80001CE0DFF82093A9F11809484502D14FF44E
:103E9000001013E0DFF8109309F19009484502D1B2
:103EA0004FF400100AE0DFF8FC9209F14809484598
:103EB00002D14FF4001001E04FF00060DFF8E4920F
:103EC000A9F14C09C9F80000F1E0DFF8DC9209F132
:103ED000A80948454CD9884201D1202041E09042B0
:103EE00001D120203DE0984201D1202039E0A042BC
:103EF00001D1202035E0A84201D1404631E0B04256
:103F000001D140462DE0B84201D1404629E060454C
:103F100001D1404625E0DFF8909209F1300948458B
:103F200002D14FF400101CE0DFF87892A9F11809D3
:103F3000484502D14FF4001013E0DFF86C9209F10C
:103F40009009484502D14FF400100AE0DFF854927E
:103F500009F14809484502D14FF4001001E04FF043
:103F60000060DFF84092A9F15009C9F800009EE016
:103F7000DFF8349209F1480948454CD9884201D10B
:103F8000202041E0904201D120203DE0984201D123
:103F9000202039E0A04201D1202035E0A84201D103
:103FA000404631E0B04201D140462DE0B84201D157
:103FB000404629E0604501D1404625E0DFF8E89120
:103FC00009F13009484502D14FF400101CE0DFF838
:103FD000D491A9F11809484502D14FF4001013E01B
:103FE000DFF8C49109F19009484502D14FF400105F
:103FF0000AE0DFF8B09109F14809484502D14FF4D1
:10400000001001E04FF00060DFF89C91A9F1100969
:10401000C9F80C004BE0884201D1202041E09042D9
:1040200001D120203DE0984201D1202039E0A0427A
:1040300001D1202035E0A84201D1404631E0B04214
:1040400001D140462DE0B84201D1404629E060450B
:1040500001D1404625E0DFF8509109F1300948458B
:1040600002D14FF400101CE0DFF83891A9F11809D3
:10407000484502D14FF4001013E0DFF82C9109F10C
:104080009009484502D14FF400100AE0DFF814917E
:1040900009F14809484502D14FF4001001E04FF002
:1040A0000060DFF80491A9F11009C9F8080001982F
:1040B0004FF48069006858454CD9884201D11020DE
:1040C00041E0904201D110203DE0984201D1102002
:1040D00039E0A04201D1102035E0A84201D1484684
:1040E00031E0B04201D148462DE0B84201D1484606
:1040F00029E0604501D1484625E0DFF8ACE00EF14B
:10410000300E704502D14FF480101CE0DFF894E0CF
:10411000AEF1180E704502D14FF4801013E0DFF8B5
:1041200088E00EF1900E704502D14FF480100AE045
:10413000DFF870E00EF1480E704502D14FF48010A8
:1041400001E04FF08060DFF85CE0AEF14C0ECEF89D
:104150000000EFE0DFF850E00EF1A80E704552D9F4
:10416000884201D1102047E0904201D1102043E065
:10417000984201D110203FE0A04201D110203BE045
:10418000A84201D1484637E0B04201D1484633E069
:10419000B8420BD148462FE0F00400205005002023
:1041A000980400205864024010600240604501D12C
:1041B000484621E0DFF8A4EC704502D14FF48010AE
:1041C0001AE0DFF89CEC704502D14FF4801013E048
:1041D000DFF888EC0EF1600E704502D14FF48010CC
:1041E0000AE0DFF87CEC0EF1600E704502D14FF46E
:1041F000801001E04FF08060DFF864ECAEF1380E23
:10420000CEF8000096E0DFF854EC0EF1180E704581
:1042100048D9884201D110203DE0904201D11020C0
:1042200039E0984201D1102035E0A04201D11020A0
:1042300031E0A84201D148462DE0B04201D14846C4
:1042400029E0B84201D1484625E0604501D1484601
:1042500021E0DFF808EC704502D14FF480101AE03D
:10426000DFF8FCEB704502D14FF4801013E0DFF86B
:10427000ECEB0EF1600E704502D14FF480100AE0B5
:10428000DFF8DCEB0EF1600E704502D14FF48010C8
:1042900001E04FF08060DFF8C4EBAEF1400ECEF8E5
:1042A0000C0047E0884201D110203DE0904201D14E
:1042B000102039E0984201D1102035E0A04201D110
:1042C000102031E0A84201D148462DE0B04201D192
:1042D000484629E0B84201D1484625E0604501D171
:1042E000484621E0DFF874EB704502D14FF48010AE
:1042F0001AE0DFF86CEB704502D14FF4801013E048
:10430000DFF858EB0EF1600E704502D14FF48010CB
:104310000AE0DFF84CEB0EF1600E704502D14FF46D
:10432000801001E04FF08060DFF830EBAEF1400E1E
:10433000CEF8080001984FF4007A0068584548D933
:10434000884201D108203DE0904201D1082039E0A7
:10435000984201D1082035E0A04201D1082031E087
:10436000A84201D150462DE0B04201D1504629E08B
:10437000B84201D1504625E0604501D1504621E0C8
:10438000DFF8D8EA704502D14FF400201AE0DFF8D8
:10439000D0EA704502D14FF4002013E0DFF8BCEA08
:1043A0000EF1600E704502D14FF400200AE0DFF8F4
:1043B000B0EA0EF1600E704502D14FF4002001E02A
:1043C0004FF00070DFF898EAAEF1340ECEF800003E
:1043D000E5E0DFF888EA0EF1780E704548D98842AA
:1043E00001D108203DE0904201D1082039E09842F7
:1043F00001D1082035E0A04201D1082031E0A842D7
:1044000001D150462DE0B04201D1504629E0B842DA
:1044100001D1504625E0604501D1504621E0DFF84A
:104420003CEA704502D14FF400201AE0DFF830EA90
:10443000704502D14FF4002013E0DFF820EA0EF1BE
:10444000600E704502D14FF400200AE0DFF810EA58
:104450000EF1600E704502D14FF4002001E04FF0E4
:104460000070DFF8FCE9AEF1380ECEF8000096E0FF
:10447000DFF8E8E90EF1180E704548D9884201D1FD
:1044800008203DE0904201D1082039E0984201D156
:10449000082035E0A04201D1082031E0A84201D136
:1044A00050462DE0B04201D1504629E0B84201D13A
:1044B000504625E0604501D1504621E0DFF89CE9F7
:1044C000704502D14FF400201AE0DFF894E97045FE
:1044D00002D14FF4002013E0DFF880E90EF1600E06
:1044E000704502D14FF400200AE0DFF874E90EF1C4
:1044F000600E704502D14FF4002001E04FF00070D3
:10450000DFF858E9AEF1400ECEF80C0047E08842E3
:1045100001D108203DE0904201D1082039E09842C5
:1045200001D1082035E0A04201D1082031E0A842A5
:1045300001D150462DE0B04201D1504629E0B842A9
:1045400001D1504625E0604501D1504621E0DFF819
:104550000CE9704502D14FF400201AE0DFF800E9C1
:10456000704502D14FF4002013E0DFF8F0E80EF1BF
:10457000600E704502D14FF400200AE0DFF8E0E859
:104580000EF1600E704502D14FF4002001E04FF0B3
:104590000070DFF8C8E8AEF1400ECEF808000198D0
:1045A000DFF8BCE84FF4802B00680EF1180E704560
:1045B00048D9884201D104203DE0904201D1042035
:1045C00039E0984201D1042035E0A04201D1042015
:1045D00031E0A84202D14FF480702CE0B04202D109
:1045E0004FF4807027E0B84202D14FF4807022E08F
:1045F000604502D14FF480701DE0DFF860E870453F
:1046000001D1584617E0DFF858E8704501D1584607
:1046100011E0DFF848E80EF1600E704501D1584610
:1046200009E0DFF83CE80EF1600E704501D1584614
:1046300001E04FF08070DFF828E8AEF1340ECEF8DC
:104640000000E5E0DFF814E80EF1780E704548D977
:10465000884201D104203DE0904201D1042039E09C
:10466000984201D1042035E0A04201D1042031E07C
:10467000A84202D14FF480702CE0B04202D14FF436
:10468000807027E0B84202D14FF4807022E060458C
:1046900002D14FF480701DE0DFF8C0E7704501D112
:1046A000584617E0DFF8B8E7704501D1584611E0E9
:1046B000DFF8A8E70EF1600E704501D1584609E019
:1046C000DFF89CE70EF1600E704501D1584601E01D
:1046D0004FF08070DFF888E7AEF1380ECEF80000BA
:1046E00096E0DFF878E70EF1180E704548D9884259
:1046F00001D104203DE0904201D1042039E09842EC
:1047000001D1042035E0A04201D1042031E0A842CB
:1047100002D14FF480702CE0B04202D14FF480708F
:1047200027E0B84202D14FF4807022E0604502D108
:104730004FF480701DE0DFF824E7704501D1584642
:1047400017E0DFF81CE7704501D1584611E0DFF8AB
:104750000CE70EF1600E704501D1584609E0DFF814
:1047600000E70EF1600E704501D1584601E04FF0B0
:104770008070DFF8E8E6AEF1400ECEF80C0047E0BE
:10478000884201D104203DE0904201D1042039E06B
:10479000984201D1042035E0A04201D1042031E04B
:1047A000A84202D14FF480702CE0B04202D14FF405
:1047B000807027E0B84202D14FF4807022E060455B
:1047C00002D14FF480701DE0DFF890E6704501D112
:1047D000584617E0DFF888E6704501D1584611E0E9
:1047E000DFF878E60EF1600E704501D1584609E019
:1047F000DFF86CE60EF1600E704501D1584601E01D
:104800004FF08070DFF854E6AEF1400ECEF80800AD
:104810000198DFF84CE600680EF1180E704548D993
:10482000884201D101203DE0904201D1012039E0D0
:10483000984201D1012035E0A04201D1012031E0B0
:10484000A84201D140202DE0B04201D1402029E012
:10485000B84201D1402025E0604501D1402021E04F
:10486000DFF8F8E5704502D14FF480301AE0DFF848
:10487000F0E5704502D14FF4803013E0DFF8DCE55D
:104880000EF1600E704502D14FF480300AE0DFF87F
:10489000D0E50EF1600E704502D14FF4803001E09A
:1048A0004FF48000DFF8B8E5AEF1340ECEF800002A
:1048B000E5E0DFF8A8E50EF1780E704548D98842AA
:1048C00001D101203DE0904201D1012039E0984220
:1048D00001D1012035E0A04201D1012031E0A84200
:1048E00001D140202DE0B04201D1402029E0B84262
:1048F00001D1402025E0604501D1402021E0DFF8D2
:104900005CE5704502D14FF480301AE0DFF850E5E5
:10491000704502D14FF4803013E0DFF840E50EF12E
:10492000600E704502D14FF480300AE0DFF830E5C8
:104930000EF1600E704502D14FF4803001E04FF46B
:104940008000DFF81CE5AEF1380ECEF8000096E0EE
:10495000DFF808E50EF1180E704548D9884201D1FC
:1049600001203DE0904201D1012039E0984201D17F
:10497000012035E0A04201D1012031E0A84201D15F
:1049800040202DE0B04201D1402029E0B84201D1C1
:10499000402025E0604501D1402021E0DFF8BCE463
:1049A000704502D14FF480301AE0DFF8B4E470456E
:1049B00002D14FF4803013E0DFF8A0E40EF1600E76
:1049C000704502D14FF480300AE0DFF894E40EF134
:1049D000600E704502D14FF4803001E04FF480004A
:1049E000DFF878E4AEF1400ECEF80C0047E08842E4
:1049F00001D101203DE0904201D1012039E09842EF
:104A000001D1012035E0A04201D1012031E0A842CE
:104A100001D140202DE0B04201D1402029E0B84230
:104A200001D1402025E0604501D1402021E0DFF8A0
:104A30002CE4704502D14FF480301AE0DFF820E416
:104A4000704502D14FF4803013E0DFF810E40EF12E
:104A5000600E704502D14FF480300AE0DFF800E4C8
:104A60000EF1600E704502D14FF4803001E04FF43A
:104A70008000DFF8E8E3AEF1400ECEF80800F94818
:104A8000DFF8DCE3806C00900EF1180E00687045D2
:104A900042D9884202D14FF0200838E0904202D13A
:104AA0004FF0200833E0984202D14FF020082EE06A
:104AB000A04202D14FF0200829E0A84227D0B042FE
:104AC00025D0B84223D0604521D0DFF890834045FF
:104AD00002D14FF400181AE0DFF88483404502D178
:104AE0004FF4001813E0DFF8748308F160084045C4
:104AF00002D14FF400180AE0DFF8648308F160087F
:104B0000404502D14FF4001801E04FF00068D4484E
:104B10003438C0F80080D3E0DFF840E30EF1780EBF
:104B2000704542D9884202D14FF0200838E09042C7
:104B300002D14FF0200833E0984202D14FF0200814
:104B40002EE0A04202D14FF0200829E0A84227D051
:104B5000B04225D0B84223D0604521D0DFF8FC8296
:104B6000404502D14FF400181AE0DFF8F4824045C6
:104B700002D14FF4001813E0DFF8E08208F160087A
:104B8000404502D14FF400180AE0DFF8D48208F162
:104B90006008404502D14FF4001801E04FF0006872
:104BA000AF483838C0F800808AE0DFF8B0E20EF194
:104BB000180E704542D9884202D14FF0200838E0E3
:104BC000904202D14FF0200833E0984202D14FF0DA
:104BD00020082EE0A04202D14FF0200829E0A84290
:104BE00027D0B04225D0B84223D0604521D0DFF88D
:104BF0006C82404502D14FF400181AE0DFF8608261
:104C0000404502D14FF4001813E0DFF8508208F15C
:104C10006008404502D14FF400180AE0DFF84082F6
:104C200008F16008404502D14FF4001801E04FF050
:104C300000688A484038C0F80C8041E0884202D1C0
:104C40004FF0200838E0904202D14FF0200833E0C6
:104C5000984202D14FF020082EE0A04202D14FF03E
:104C6000200829E0A84227D0B04225D0B84223D05E
:104C7000604521D0DFF8E481404502D14FF40018AF
:104C80001AE0DFF8DC81404502D14FF4001813E050
:104C9000DFF8C88108F16008404502D14FF40018E0
:104CA0000AE0DFF8BC8108F16008404502D14FF40A
:104CB000001801E04FF0006868484038C0F80880EC
:104CC0000098DFF89C81006808F11808404542D937
:104CD000884202D14FF0100938E0904202D14FF0E3
:104CE000100933E0984202D14FF010092EE0A042A3
:104CF00002D14FF0100929E0A84227D0B04225D0B8
:104D0000B84223D0604521D0DFF85091484502D108
:104D10004FF480191AE0DFF84891484502D14FF46A
:104D2000801913E0DFF8349109F16009484502D198
:104D30004FF480190AE0DFF8289109F1600948452D
:104D400002D14FF4801901E04FF0806944483438B3
:104D5000C0F80090D8E0DFF804E10EF1780E70455D
:104D600042D9884202D14FF0100938E0904202D176
:104D70004FF0100933E0984202D14FF010092EE0B5
:104D8000A04202D14FF0100929E0A84227D0B0423A
:104D900025D0B84223D0604521D0DFF8C0904845E7
:104DA00002D14FF480191AE0DFF8B490484502D1DF
:104DB0004FF4801913E0DFF8A49009F16009484529
:104DC00002D14FF480190AE0DFF8949009F16009EC
:104DD000484502D14FF4801901E04FF08069204826
:104DE0003838C0F800908FE0DFF870E00EF1180E50
:104DF000704546D9884202D14FF010093DE09042FB
:104E000002D14FF0100938E0984202D14FF010095A
:104E100033E0A04202D14FF010092EE0A8422CD07E
:104E2000B0422AD0B84228D0604526D0DFF82C9076
:104E3000484502D14FF480191FE0DFF8249048451F
:104E400002D14FF4801918E0DFF8109009F16009E1
:104E5000484509D14FF480190FE00000406002403E
:104E60004064024098040020DFF80494484502D1D1
:104E70004FF4801901E04FF08069FE48C0F80C90B3
:104E800042E0884202D14FF010093AE0904202D14C
:104E90004FF0100935E0984202D14FF0100930E090
:104EA000A04202D14FF010092BE0A84229D0B04215
:104EB00027D0B84225D0604523D0DFF8B89309F158
:104EC0004009484502D14FF480191AE0DFF8A09359
:104ED000A9F16009484502D14FF4801911E0DFF8CB
:104EE000949309F1A009484502D14FF4801908E0D4
:104EF000DFF87C93484502D14FF4801901E04FF070
:104F00008069DC48C0F8089000980068404544D9A2
:104F1000884202D14FF0080A3AE0904202D14FF0A5
:104F2000080A35E0984202D14FF0080A30E0A0426A
:104F300002D14FF0080A2BE0A84229D0B04227D076
:104F4000B84225D0604523D0DFF8289309F1400905
:104F5000484502D14FF4002A1AE0DFF81493A9F172
:104F60006009484502D14FF4002A11E0DFF80493AC
:104F700009F1A009484502D14FF4002A08E0DFF802
:104F8000F092484502D14FF4002A01E04FF0007A38
:104F9000B7489438C0F800A0D7E0DFF8D89209F1FC
:104FA000B809484544D9884202D14FF0080A3AE08E
:104FB000904202D14FF0080A35E0984202D14FF0FA
:104FC000080A30E0A04202D14FF0080A2BE0A842C4
:104FD00029D0B04227D0B84225D0604523D0DFF891
:104FE000949209F14009484502D14FF4002A1AE091
:104FF000DFF87C92A9F16009484502D14FF4002AFC
:1050000011E0DFF8709209F1A009484502D14FF490
:10501000002A08E0DFF85892484502D14FF4002AF0
:1050200001E04FF0007A92489838C0F800A08CE078
:10503000DFF8409209F15809484543D9884202D126
:105040004FF0080A3AE0904202D14FF0080A35E0EA
:10505000984202D14FF0080A30E0A04202D14FF04E
:10506000080A2BE0A84229D0B04227D0B84225D068
:10507000604523D0DFF8FC9109F14009484502D191
:105080004FF4002A1AE0DFF8E891A9F160094845D9
:1050900002D14FF4002A11E0DFF8D89109F1A009FC
:1050A000484502D14FF4002A08E0DFF8C491484592
:1050B00002D14FF4002A01E04FF0007A6D48C0F8A9
:1050C0000CA042E0884202D14FF0080A3AE0904238
:1050D00002D14FF0080A35E0984202D14FF0080A99
:1050E00030E0A04202D14FF0080A2BE0A84229D0BC
:1050F000B04227D0B84225D0604523D0DFF8749164
:1051000009F14009484502D14FF4002A1AE0DFF8BE
:105110006091A9F16009484502D14FF4002A11E0DD
:10512000DFF8509109F1A009484502D14FF4002A57
:1051300008E0DFF83C91484502D14FF4002A01E035
:105140004FF0007A4B48C0F808A00098006840452E
:1051500044D9884202D14FF0040B3AE0904202D188
:105160004FF0040B35E0984202D14FF0040B30E0D1
:10517000A04202D14FF0040B2BE0A84202D14FF421
:10518000807B26E0B04202D14FF4807B21E0B84220
:1051900002D14FF4807B1CE0604502D14FF4807B4C
:1051A00017E0DFF8D09009F14009484511D0DFF849
:1051B000C090A9F1600948450BD0DFF8B89009F11B
:1051C000A009484505D0DFF8A890484501D04FF028
:1051D000807B27489438C0F800B0DDE0DFF8949079
:1051E00009F1B80948454AD9884202D14FF0040B69
:1051F0003AE0904202D14FF0040B35E0984202D1E0
:105200004FF0040B30E0A04202D14FF0040B2BE032
:10521000A84202D14FF4807B26E0B04202D14FF485
:10522000807B21E0B84202D14FF4807B1CE06045D6
:1052300002D14FF4807B17E0DFF8389009F1400984
:10524000484511D0DFF82890A9F1600948450BD0F6
:10525000DFF8209009F1A009484505D0DFF810904B
:10526000484501D04FF0807B0148983804E00000A9
:10527000A064024000600240C0F800B08CE0DFF89B
:105280007093484544D9884202D14FF0040B3AE06C
:10529000904202D14FF0040B35E0984202D14FF01A
:1052A000040B30E0A04202D14FF0040B2BE0A842E7
:1052B00002D14FF4807B26E0B04202D14FF4807BD4
:1052C00021E0B84202D14FF4807B1CE0604502D15E
:1052D0004FF4807B17E0DFF81893A9F118094845CF
:1052E00011D0DFF8109348450DD0DFF8049309F191
:1052F0004809484507D0DFF8FC9209F160094845A4
:1053000001D04FF0807BBA485838C0F80CB043E069
:10531000884202D14FF0040B3AE0904202D14FF0A4
:10532000040B35E0984202D14FF0040B30E0A0426C
:1053300002D14FF0040B2BE0A84202D14FF4807B46
:1053400026E0B04202D14FF4807B21E0B84202D186
:105350004FF4807B1CE0604502D14FF4807B17E066
:10536000DFF88C92A9F11809484511D0DFF8849232
:1053700048450DD0DFF8789209F14809484507D033
:10538000DFF8709209F16009484501D04FF0807B49
:1053900097485838C0F808B000980068404540D990
:1053A000884201D1012038E0904201D1012034E04F
:1053B000984201D1012030E0A04201D101202CE02F
:1053C000A84201D1402028E0B04201D1402024E091
:1053D000B84201D1402020E0604501D140201CE0CE
:1053E00083491839884202D14FF4803015E0814951
:1053F000884202D14FF480300FE07D494831884225
:1054000002D14FF4803008E07A496031884202D1FD
:105410004FF4803001E04FF4800076493439086061
:10542000CBE0DFF8CC8108F16008404540D98842E4
:1054300001D1012038E0904201D1012034E09842AE
:1054400001D1012030E0A04201D101202CE0A8428E
:1054500001D1402028E0B04201D1402024E0B842F0
:1054600001D1402020E0604501D140201CE060498E
:105470001839884202D14FF4803015E05D498842E6
:1054800002D14FF480300FE059494831884202D1AF
:105490004FF4803008E057496031884202D14FF420
:1054A000803001E04FF4800052493839086084E0D0
:1054B000DFF83C81404540D9884201D1012038E0E5
:1054C000904201D1012034E0984201D1012030E026
:1054D000A04201D101202CE0A84201D1402028E0C7
:1054E000B04201D1402024E0B84201D1402020E068
:1054F000604501D140201CE03D491839884202D165
:105500004FF4803015E03B49884202D14FF480309F
:105510000FE037494831884202D14FF4803008E02B
:1055200034496031884202D14FF4803001E04FF4B9
:1055300080002F495839C8603FE0884201D10120DE
:1055400038E0904201D1012034E0984201D101209D
:1055500030E0A04201D101202CE0A84201D140203E
:1055600028E0B04201D1402024E0B84201D14020DF
:1055700020E0604501D140201CE01D4918398842D7
:1055800002D14FF4803015E01A49884202D14FF41D
:1055900080300FE016494831884202D14FF4803004
:1055A00008E014496031884202D14FF4803001E0B4
:1055B0004FF480000E49583988600F4803990268FB
:1055C000D1600E49029A0B68DA600368049A5A6047
:1055D0000B68049A5A600068026842F00102026097
:1055E0000868016841F00101016005B0BDE8F08F75
:1055F0005860024040640240F00400205005002042
:105600002DE9F04F3B4C23685D6845F002055D6075
:1056100023685D6845F001055D6023681C6844F0FF
:1056200040041C60344C23681D6825F001051D6092
:1056300003E01D6825F001051D6023681D68ED0766
:10564000F7D12E4F2E4D2D4E4C3FDFF8B490D4F8AD
:1056500000B0DFF8ACC0B83D4FF4001AA7F1040861
:10566000A9F16009B34502D9C7F800A00BE0634572
:1056700002D9C8F800A006E04B4502D9C5F80CA035
:1056800001E0C5F808A0DFF87CA0C3F808A02368F3
:10569000D96021684A6021680B6843F010030B60F1
:1056A000194B19680C6824F001040C6003E00C68C5
:1056B00024F001040C6019680C68E407F7D1D3F8F2
:1056C00000B04FF00064B34501D93C6009E061458A
:1056D00002D9C8F8004004E0494501D9EC6000E077
:1056E000AC60C1F808A01968C86018684260BDE8DD
:1056F000F08F000098040020F0040020586402405D
:10570000B86002400C300140500500207CB50446D2
:105710001348144D0068B0FBF5F04FF47A756843F8
:1057200001906068B0F5827F0DD10B460092002297
:105730008021204600F018F878B1606D40F020001C
:10574000606503207CBD019838B10198401E01902E
:1057500020688068C0430006F5D500207CBD0000AD
:105760002000002000366E012DE9F84304460F4664
:1057700091461E46089DFCF73FF8401B351AFCF782
:105780003BF8804626480068C0F3CB306843009061
:105790003AE0701C38D0FCF72FF8A0EB0800A842C4
:1057A00003D215B1009858B32BE02068416821F06E
:1057B000E00141606068B0F5827F0BD1A068B0F570
:1057C000004F02D0B0F5806F04D12068016821F04D
:1057D00040010160A06AB0F5005F09D1206801684E
:1057E00021F4005101602068016841F4005101601A
:1057F000012050346070002020700320BDE8F88341
:1058000000250098401E00902068806837EA00005C
:1058100004D000204845BCD10020EFE70120F9E783
:105820002000002010B5502080F31188BFF34F8F67
:10583000BFF36F8F03F064F918B104494FF0805043
:105840000860002080F3118810BD000004ED00E026
:1058500030B593B0302107A8FAF756FE142102A8FC
:10586000FAF752FE00251D48016841F080510160A1
:10587000006800F0805001901948016841F48041AF
:105880000160006800F4804001900120079000044E
:10589000089002240D9480010E9006200F90A820FD
:1058A000109011940420129007A8FCF7ABFA08B1ED
:1058B000FBF787F90F200290039404954FF4A05052
:1058C00005904FF480500690052102A8FCF77AF964
:1058D000002801D0FBF775F913B030BD4038024005
:1058E000007000400248016841F470010160704797
:1058F00088ED00E010B50448FDF729F8BDE8104038
:105900000248FDF724B8000088060020BC070020EC
:105910002DE9F0410268264D264E274FDFF89CC046
:10592000274B4FF08048A84209D0404507D0B042ED
:1059300005D0B84203D0604501D0984203D122F08F
:1059400070044A682243A8421BD0404519D0B04297
:1059500017D0B84215D0604513D0984211D0194CD9
:10596000A0420ED0184CA0420BD0184CA04208D038
:10597000174CA04205D0174CA04202D0164CA042B2
:1059800003D122F44074CA6822434C6922F0800299
:10599000224302608A68C2620A688262A84201D019
:1059A000984201D10969016301214161BDE8F0819B
:1059B000000001400004004000080040000C0040CE
:1059C0000004014000400140004401400048014003
:1059D00000180040001C00400020004010B501F0FD
:1059E0001F0101238B40046A9C430462036A8A40BE
:1059F0001343036210BD10B5846824F47F4442EA67
:105A000003220A432243826010BD826822F07002A2
:105A10000A4342F00701816070470000F0B5026A56
:105A200022F001020262026A4368846924F0700471
:105A300024F003050C682C4322F002058A682A43EF
:105A40000E4E0F4FB04201D0B84205D122F00805EA
:105A5000CA682A4322F00402B04201D0B84207D1FA
:105A600023F4807323F400734D691D438B692B432A
:105A700043608461496841630262F0BD00000140F7
:105A800000040140F0B5026A22F010020262036ACB
:105A90004268846924F4E04424F440740D6844EAC4
:105AA000052423F020038D6843EA0513104D114EA1
:105AB000A84201D0B04206D123F08003CF6843EA68
:105AC000071323F04003A84201D0B04209D122F4C9
:105AD000806222F400624D6942EA85028D6942EAE1
