:020000040800F2
:10000000304D0020E9020008ED37000805310008F6
:10001000E937000897050008614200080000000069
:10002000000000000000000000000000290200089D
:100030001B0700080000000085020008D13A0008F4
:100040000303000803030008030300080303000878
:100050000303000803030008030300080303000868
:100060000303000803030008030300080303000858
:100070000D0600080303000803030008030300083B
:100080000303000803030008030300080303000838
:100090009D0500080303000803030008030300088C
:1000A0000303000803030008030300080303000818
:1000B0000303000803030008030300080303000808
:1000C00003030008030300080303000803030008F8
:1000D0000303000803030008030300083D41000870
:1000E00003030008030300080303000803030008D8
:1000F00003030008CD3B00080303000803030008C6
:1001000003030008030300080303000803030008B7
:1001100003030008030300080303000803030008A7
:1001200003030008030300081D0600082D0600084D
:100130000303000803030008030300080303000887
:10014000AD050008030300080303000803030008CB
:100150000303000803030008030300080303000867
:100160000303000803030008030300080303000857
:100170000303000803030008030300080000000055
:10018000030300080303000800F002F800F03CF845
:100190000AA090E8000C82448344AAF10107DA45E2
:1001A00001D100F031F8AFF2090EBAE80F0013F0F8
:1001B000010F18BFFB1A43F0010318471066000037
:1001C00030660000103A24BF78C878C1FAD85207C8
:1001D00024BF30C830C144BF04680C6070470000C1
:1001E0000023002400250026103A28BF78C1FBD840
:1001F000520728BF30C148BF0B6070471FB506F0DB
:100200008AFA1FBD10B510BD00F08BF91146FFF73B
:10021000F5FF04F0DBF900F0A9F903B4FFF7F2FFF2
:1002200003BC00F0B1F900002C4B19680868B0E875
:10023000F04F80F30988BFF36F8F4FF0000080F319
:10024000118870470000000008480068006880F3CB
:1002500008884FF0000080F3148862B661B6BFF3DF
:100260004F8FBFF36F8F00DF00BF00BF08ED00E0CE
:10027000DFF80C00016841F470010160704700BFB5
:1002800088ED00E0EFF30980BFF36F8F134B1A681E
:100290001EF0100F08BF20ED108A20E9F04F10600B
:1002A00009B44FF0500080F31188BFF34F8FBFF3B4
:1002B0006F8F05F075FB4FF0000080F3118809BCCB
:1002C00019680868B0E8F04F1EF0100F08BFB0ECD6
:1002D000108A80F30988BFF36F8F70474C000020AD
:1002E000EFF3058070470000094880470948004740
:1002F000FEE7FEE7FEE7FEE7FEE7FEE7FEE7FEE7D6
:10030000FEE7FEE704480549054A064B7047000032
:10031000B93B00088901000830470020304D00201B
:10032000304900203049002053EA020C00F0698077
:100330002DE9F04B4FF00006002B1FBFB3FA83F5F9
:1003400003FA05F424FA05F65E4012BF1643B2FA2A
:1003500082F502FA05F4C5F120051EBF22FA05FC5C
:1003600044EA0C04203556EA044C4FEA144418BF02
:10037000641C4FF000084FF00009904271EB030C31
:1003800039D3002919BFB1FA81F701FA07F6B0FA9B
:1003900080F700FA07F6C7F120071EBF20FA07FC16
:1003A00046EA0C062037B6FBF4FCA7EB0507103F26
:1003B00007F01F0BCBF120060CFA0BFB2CFA06F60C
:1003C00044BFB3460026202FA4BF5E464FF0000B6B
:1003D0005BEA060C08BF4FF0010B19EB0B09ABFBF6
:1003E000027C48EB0608C01B06FB02CC0BFB03CCCF
:1003F00071EB0C01C1E70B46024641464846BDE899
:10040000F08B13B54FF000004FF00001AFF3008008
:10041000BDE81C40704710B5203AC0F00B80B1E831
:100420001850203AA0E81850B1E81850A0E8185029
:10043000BFF4F5AF5FEA027C24BFB1E81850A0E832
:10044000185044BF18C918C0BDE810405FEA827C4C
:1004500024BF51F8043B40F8043B08BF7047D20763
:1004600028BF31F8023B48BF11F8012B28BF20F804
:10047000023B48BF00F8012B704702F0FF0343EA3C
:10048000032242EA024200F02CB84FF0000200B50D
:10049000134694469646203922BFA0E80C50A0E8A7
:1004A0000C50B1F12001BFF4F7AF090728BFA0E855
:1004B0000C5048BF0CC05DF804EB890028BF40F821
:1004C000042B08BF704748BF20F8022B11F0804F63
:1004D00018BF00F8012B70477047704770474FF006
:1004E00000020429C0F0128010F0030C3FF4CFAFDB
:1004F000CCF1040CBCF1020F18BF00F8012BA8BF0F
:1005000020F8022BA1EB0C01FFF7C1BF5FEAC17C11
:1005100024BF00F8012B00F8012B48BF00F8012B85
:100520007047754600F02CF8AE4605006946534604
:1005300020F00700854618B020B5FFF7E3FEBDE8C0
:1005400020404FF000064FF000074FF000084FF03A
:10055000000B21F00701AC46ACE8C009ACE8C009CB
:10056000ACE8C009ACE8C0098D46704710B5044638
:10057000AFF300802046BDE81040FFF74EBE0000FC
:1005800000487047D046002001491820ABBEFEE766
:1005900026000200704700BFFEE7000010B50248C9
:1005A00000F0D0FA10BD00000803002010B502488A
:1005B00000F0C8FA10BD000030030020F8B507466F
:1005C0000C4615461E464FF400700D490860002089
:1005D0008860C86008200861380A0A4908704F70AE
:1005E000200A8870CC70280A08714D71300A887111
:1005F000CE716B460A460249034800F0A7F8F8BDE1
:1006000098080020320000200803002010B502489E
:1006100000F0A2FD10BD00007006002010B50248D9
:1006200000F09AFD10BD00000404002010B502483F
:1006300000F092FD10BD000064040020014608781F
:1006400010381823B0FBF3F20848805CC865032A11
:1006500005D908686FF30900001D886503E0086884
:100660006FF309008865886D704700008067000897
:10067000014600208A6A8B69CBB932B1012A0DD0BC
:10068000022A03D0032A10D10EE000BFCB6A03F088
:100690008073B3F1807F00D1012007E0CB6AB3F112
:1006A000C07F00D1012001E000E000BF34E08B6991
:1006B000B3F5005F1AD132B1012A07D0022A03D064
:1006C000032A11D10AE000BF01200EE0CB6A03F03B
:1006D0008073B3F1807F00D1012006E0CB6AB3F1D3
:1006E000C07F00D1012000E000BF15E032B1012A37
:1006F00005D0022A04D0032A0CD103E000BF00BFBA
:10070000012008E0CB6A03F08073B3F1807F00D151
:10071000012000E000BF00BF7047704772B600BF05
:10072000FEE710B5024692F82030012B01D0022BD3
:1007300006D110684069084314686061002010BD4C
:10074000506A40F4802050620120F8E7F0B504467A
:100750000D461E4694F8207020688368A86800B98A
:1007600000E000BF012F01D0022F7CD103F0806098
:1007700030B903F0006018B903F08050002873D03E
:10078000C3F30161022905D9606A40F40000606288
:100790000120F0BD012088403060A86860B9B5F83C
:1007A00000C0E86840EA4C5C206800F5C07000EBCF
:1007B0000110C0F800C00FE0D5E901C040EACC004C
:1007C000D5F80CC040EA0C00D4F800C00CF5C07C91
:1007D0000CEB011CCCF80000D5F810C0206800F527
:1007E000C07000EB0110C0F804C0287D01280ED1B4
:1007F000206800F5C07000EB0110406840F4807C78
:10080000206800F5C07000EB0110C0F804C0D0797A
:10081000000692F806C040EA0C4092F805C040EA93
:100820000C2C10794CEA000C206800F5C07000EB2D
:100830000110C0F80CC0D078000692F802C040EA5F
:100840000C4092F801C040EA0C2092F800C040EA47
:100850000C00D4F800C00CF5C07C0CEB011CCCF8EB
:100860000800206801E016E00FE000F5C07000EB22
:100870000110006840F0010C206800F5C07000EB2A
:100880000110C0F800C0002083E7606A40F4001047
:10089000606201207DE7606A40F480206062012090
:1008A00077E70000F0B504460A46216894F8205026
:1008B000012D01D0022D7ED1424901F50071086859
:1008C00040F001000860086820F47C500860086867
:1008D000566A40EA06200860107D00F01F060120DD
:1008E00000FA06F3C8699843C861A1F50071D069A0
:1008F000C8B9D1F80C029843C1F80C02908880B2B4
:10090000968940EA064601F51070576940F837604D
:10091000108880B2168940EA064601F510705769C2
:1009200000EBC7004660D069012819D1D1F80C024C
:100930001843C1F80C02908880B2168840EA064637
:1009400001F51070576940F83760908980B21689B8
:1009500040EA064601F51070576900EBC700466093
:10096000906928B9D1F804029843C1F8040204E060
:10097000D1F804021843C1F80402106928B9D1F86B
:1009800014029843C1F8140204E0D1F81402184389
:10099000C1F81402106A012804D1D1F81C021843CE
:1009A000C1F81C02D1F8000220F00100C1F80002D9
:1009B0000020F0BDFFE7606A40F480206062012003
:1009C000F7E7000000640040704770B5044694F8F3
:1009D0002050012D01D0022D7DD151B92068C06871
:1009E00000F0030080B9606A40F4001060620120EA
:1009F00070BD2068006900F0030028B9606A40F407
:100A0000001060620120F3E7206800F5D87000EB69
:100A10000110006800F004009060906840B9206800
:100A200000F5D87000EB01100068400D106007E081
:100A3000206800F5D87000EB01100068C008506015
:100A4000206800F5D87000EB0110006800F002008B
:100A5000D060206800F5D87000EB0110406800F00D
:100A60000F001061206800F5D87000EB011040689D
:100A700000F47F40000A9061206800F5D87000EB18
:100A800001104068000C5061206800F5D87000EB40
:100A9000011080681870206800F5D87000EB011014
:100AA000806800F47F40000A5870206800F5D87014
:100AB00000EB0110806800F47F00000C9870206843
:100AC00000F5D87000EB01108068000ED870206827
:100AD00000F5D87000E02FE000EB0110C06818713D
:100AE000206800F5D87000EB0110C06800F47F406A
:100AF000000A5871206800F5D87000EB0110C0683A
:100B000000F47F00000C9871206800F5D87000EBAD
:100B10000110C068000ED87131B92068C06840F07B
:100B200020002668F06005E02068006940F02000A1
:100B30002668306100205BE7606A40F480206062D4
:100B4000012055E72DE9F05F04460025206846693D
:100B50002068D0F80490206887682068D0F80CA03E
:100B60002068D0F810B02068D0F8188006F0010096
:100B7000002855D007F00100C0B10120216888602D
:100B800007F0020018B1204600F0DFFA0EE007F08F
:100B9000040010B145F4006508E007F0080010B14A
:100BA00045F4805502E0204600F0CEFA07F480704C
:100BB000C8B14FF480702168886007F4007018B1E4
:100BC000204600F0C4FA0EE007F4806010B145F44E
:100BD000005508E007F4006010B145F4804502E0DC
:100BE000204600F0B3FA07F48030C8B14FF48030EB
:100BF0002168886007F4003018B1204600F0A9FA97
:100C00000EE007F4802010B145F4004508E007F439
:100C1000002010B145F4803502E0204600F098FA3B
:100C200006F0080038B10AF0100020B145F4007554
:100C300010202168C86006F0040040B10AF00800E6
:100C400028B108202168C860204600F00DFA06F09F
:100C5000020038B12068C06800F0030010B12046DF
:100C600000F004FA06F0400038B10BF0100020B19B
:100C700045F4806510202168086106F0200040B12D
:100C80000BF0080028B1082021680861204600F018
:100C900029FA06F0100038B12068006900F003005E
:100CA00010B1204600F01FFA06F4003040B109F000
:100CB000100028B1102021684860204600F014FA86
:100CC00006F4803040B109F0080028B108202168FE
:100CD0004860204600F03EFA06F4004088B309F070
:100CE000040078B306F4807020B108F0010008B168
:100CF00045F0010506F4007020B108F0020008B1CB
:100D000045F0020506F4806020B108F0040008B147
:100D100045F0040506F40060A0B108F0700088B149
:100D200008F07000402817D006DC10280BD02028CF
:100D30000CD0302819D10CE0502810D0602814D1E4
:100D400010E01DE019E045F008050FE045F0100542
:100D50000CE045F0200509E045F0400506E045F0CF
:100D6000800503E045F4807500E000BF00BF206807
:100D7000806920F070002168886104202168486043
:100D80002DB1606A284360622046FFF71DFEBDE872
:100D9000F09F70B504460CB9012070BD94F8200096
:100DA00010B9204600F0B0F82068006840F001005B
:100DB0002168086000F066FC05460DE000F062FC6A
:100DC000401B0A2808D9606A40F4003060620520A0
:100DD00084F820000120E0E72068406800F001006E
:100DE0000028EBD02068006820F00200216808602D
:100DF00000F048FC05460DE000F044FC401B0A28CA
:100E000008D9606A40F400306062052084F8200050
:100E10000120C2E72068406800F002000028EBD102
:100E2000207E012806D12068006840F080002168FB
:100E3000086005E02068006820F0800021680860F4
:100E4000607E012806D12068006840F040002168DB
:100E5000086005E02068006820F040002168086014
:100E6000A07E012806D12068006840F0200021689B
:100E7000086005E02068006820F020002168086014
:100E8000E07E012806D12068006820F0100021686B
:100E9000086005E02068006840F0100021680860E4
:100EA000207F012806D12068006840F008002168F2
:100EB000086005E02068006820F0080021680860EC
:100EC000607F012806D12068006840F00400216896
:100ED000086005E02068006820F0040021680860D0
:100EE000D4E9020108432169084361690843616844
:100EF000491E08432168C86100206062012084F80F
:100F00002000002049E7000010B586B004461421F7
:100F100001A8FFF7BAFA4E492068884241D14D48EE
:100F20000068401C4B4908600846006801280FD142
:100F300000BF002000904848006840F0007046491B
:100F400008600846006800F00070009000BF00BF15
:100F500000BF0020009040481038006840F00800B2
:100F60003D49103908600846006800F0080000900C
:100F700000BF00BF032001900220029000200390D8
:100F8000032004900920059001A9344800F07AFA62
:100F900000220521142000F085FD142000F072FDD0
:100FA00054E02F492068884250D100BF00200090B3
:100FB0002948006840F080602749086008460068BA
:100FC00000F08060009000BF00BF22480068401C15
:100FD000204908600846006801280FD100BF0020A2
:100FE00000901D48006840F000701B4908600846EA
:100FF000006800F00070009000BF00BF00BF00203C
:10100000009015481038006840F00200124910396D
:1010100008600846006800F00200009000BF00BFB2
:101020006020019002200290002003900320049091
:101030000920059001A90B4800F024FA002205219F
:10104000402000F02FFD402000F01CFD06B010BD38
:10105000006400400C00002040380240000C0240B8
:1010600000680040000402407047000010B58AB0DC
:10107000044601AB03AA00212046FFF7A6FC039813
:10108000A0F2012020B1012807D0022821D10AE0D6
:1010900001A9124803F00CFA1CE001A90F4818300E
:1010A00003F006FA16E00E48007D322809DA01A99D
:1010B0000B4803F0F5F90A48007D401C0849087503
:1010C00003E001A9064803F0F3F9054803F00AFA22
:1010D00000E000BF00BF0AB010BD000038080020CB
:1010E0002008002070477047704770B5044694F898
:1010F0002000012822D1022084F820002068006806
:1011000020F001002168086000F0BCFA05460DE0FF
:1011100000F0B8FA401B0A2808D9606A40F4003091
:101120006062052084F82000012070BD20684068BE
:1011300000F001000028EBD16062F6E7606A40F43D
:10114000002060620120F0E77047704770477047E9
:101150007047704770470000F8B5044600200090C3
:101160008C4800684FF41651B0FBF1F7A56D2E685E
:1011700094F85C1008208840304098B120680068DE
:1011800000F0040070B12068006820F004002168BD
:10119000086094F85C1008208840A860606D40F0FA
:1011A0000100606594F85C1001208840304068B10F
:1011B0002068406900F0800040B194F85C10012084
:1011C0008840A860606D40F00200606594F85C1093
:1011D00004208840304068B12068006800F00200B8
:1011E00040B194F85C1004208840A860606D40F025
:1011F0000400606594F85C1010208840304078B39B
:101200002068006800F0080050B394F85C101020CB
:101210008840A8602068006800F4802080B12068C1
:10122000006800F4002028B9206CC8B12046216C69
:10123000884715E0A06C98B12046A16C88470FE064
:101240002068006800F4807028B92068006820F0E9
:10125000080021680860206C10B12046216C884786
:1012600094F85C10202088403040002865D0206829
:10127000006800F0100000285FD094F85C10202077
:101280008840A86094F83500052828D120680068B7
:1012900020F01600216808602068406920F0800076
:1012A00021684861206C08B9A06C28B120680068EA
:1012B00020F008002168086094F85C103F20884006
:1012C000A860012084F8350000BF002084F83400B5
:1012D00000BF206D10B12046216D8847F8BD206801
:1012E000006800F4802080B12068006800F40020CD
:1012F00028B9606C10B12046616C88471DE0E06B36
:10130000D8B12046E16B884717E02068006800F4F8
:10131000807068B92068006820F0100021680860BB
:10132000012084F8350000BF002084F8340000BF9D
:10133000E06B10B12046E16B8847606D38B3606D9B
:1013400000F00100F0B1052084F835002068006845
:1013500020F001002168086000BF0098401C009048
:10136000B84200D905E02068006800F001000028BC
:10137000F3D100BF012084F8350000BF002084F8BD
:10138000340000BFE06C10B12046E16C884700BF1C
:10139000A4E700001C0000202DE9F04104460025D0
:1013A00000F070F9074614B90120BDE8F081606AC9
:1013B00000B100BF022084F8350000BF002084F88F
:1013C000340000BF2068006820F001002168086038
:1013D0000AE000F057F9C01B052805D920206065F8
:1013E000032084F83500E0E72068006800F0010081
:1013F0000028EED12068056821480540D4E90101A4
:101400000843E16808432169084361690843A16909
:101410000843E1690843216A08430543606A0428D8
:1014200003D1D4E90B010843054320680560206817
:10143000456925F00705606A0543606A04280DD1F7
:10144000A06A0543E06A48B12046FFF711F928B1C8
:1014500040206065012084F83500A6E720684561DA
:101460002046FFF7EBF8064694F85C103F208840D2
:10147000B06000206065012084F83500002094E70A
:101480003F8010F0F8B502460B46002500240020EE
:101490000021D6E0012606FA01F51E6806EA0504D9
:1014A000AC4274D11E7906F00306012E04D01E79D9
:1014B00006F00306022E13D190684F000326BE40AB
:1014C000B0434F00DE68BE40304390605068012654
:1014D0008E40B0431E79C6F300168E4030435060F4
:1014E0001E7906F00306032E09D0D0684F000326AC
:1014F000BE40B0434F009E68BE403043D0601E796E
:1015000006F00306022E13D1CF0802F1200656F88A
:1015100027004E07F70E0F26BE40B0434F07FF0EC1
:101520001E69BE403043CF0802F1200646F827006E
:1015300010684F000326BE40B0431E7906F0030634
:101540004F00BE40304310605E6806F44036002E07
:1015500076D000BF002600963C4E366846F48046A2
:101560003A4F3E603E46366806F48046009600BF1D
:1015700000BF374E8F0856F827008E07370F0F260B
:10158000BE40B043334EB24202D1002624E057E0C1
:10159000314EB24201D101261EE0304EB24201D19D
:1015A000022619E02E4EB24201D1032614E02D4E40
:1015B000B24201D104260FE02B4EB24201D10526E2
:1015C0000AE02A4EB24201D1062605E0284EB24278
:1015D00001D1072600E008268F073F0FBE403043A9
:1015E0001B4E8F0846F82700224E3068A0435E68E5
:1015F00006F4801606B120431E4E3060361D30685A
:10160000A0435E6806F4001606B12043194E361D4D
:101610003060184E361F3068A0435E6806F400360E
:1016200006B12043134E361F3060361F3068A0438A
:101630005E6806F4803606B120430E4E083E3060E8
:10164000491C1029FFF426AFF8BD000044380240C1
:101650000838014000000240000402400008024037
:10166000000C02400010024000140240001802402A
:10167000001C0240083C01400AB1816101E00B04FA
:101680008361704701480068704700001000002027
:1016900070B504460CB9012070BD94F83D0028B91E
:1016A000002084F83C00204600F0DAF8242084F87A
:1016B0003D002068006820F0010021680860206873
:1016C000006840F40040216808602068006820F449
:1016D00000402168086000F021FB05465C49606815
:1016E000884206D85B48854201D2012007E00020ED
:1016F00005E05948854201D2012000E00020012880
:1017000000D1C9E75548B5FBF0F62068406820F0E5
:101710003F003043216848604D496068884201D8E5
:10172000701C07E04FF4967070434FF47A71B0FB71
:10173000F1F0401C2168096A21F03F01084321684B
:10174000086243496068884214D8681E616849008D
:10175000B0FBF1F0401CC0F30B00042801D20420C0
:101760003DE0681E61684900B0FBF1F0401CC0F329
:101770000B0034E0A06838B9681E616801EB4101D4
:10178000B0FBF1F0401C0AE0681E616801EBC10289
:1017900002EB0111B0FBF1F0401C40F48040C0F3BB
:1017A0000B0008B901201AE0A06848B9681E6168FA
:1017B00001EB4101B0FBF1F0401CC0F30B000CE069
:1017C000681E616801EBC10202EB0111B0FBF1F090
:1017D000401CC0F30B0040F4804040F400402168FE
:1017E000C9694CF6FF72914308432168C861D4E986
:1017F000070108432168096821F0C00108432168F6
:101800000860D4E9031008432168896848F2FF3270
:101810009143084321688860D4E9050108432168A1
:10182000C96821F0FF0108432168C860206800688A
:1018300040F001002168086000202064202084F826
:101840003D000020206384F83E0000BF24E7000034
:10185000A086010080841E0000093D0040420F0068
:1018600010B586B00446142101A8FEF70EFE2A49E1
:10187000206888424DD100BF0020009027480068B2
:1018800040F00400254908600846006800F00400A4
:10189000009000BF00BF00BF002000900846006815
:1018A00040F0010008600846006800F00100009068
:1018B00000BF00BF48150190122002900120039044
:1018C000032004900420059001A91548FFF7DAFDD4
:1018D0004FF48070019012200290012003900320A9
:1018E00004900420059001A90E48FFF7CBFD00BF2E
:1018F0000020009009481030006840F400000749BB
:10190000103108600846006800F40000009000BF35
:1019100000BF06B010BD0000005C0040303802403F
:1019200000080240000002400348006803490978AB
:10193000084401490860704710000020180000208A
:1019400010B50D48006840F400700B490860084667
:10195000006840F4806008600846006840F48070C9
:101960000860032000F0DCF80F2000F007F800F01A
:101970005FF8002010BD0000003C02402DE9F0415E
:1019800088B004460027B84600BF002001902348D5
:10199000006840F48070214908600846006800F43F
:1019A0008070019000BF00BF02A903A800F08EF96B
:1019B000069F1FB900F0B2F9054602E000F0AEF94B
:1019C00045001748B5FBF0F0A0F10108154816498D
:1019D000086040F2E7311448C160C0F8048000217B
:1019E00001618160816100F005FE064696B90E48EE
:1019F00000F002FF06466EB92D2000F043F8102CCF
:101A000007D2002221462D2000F04CF80748046040
:101A100000E00126304608B0BDE8F08140380240C1
:101A200040420F0000200040D0060020140000209B
:101A300008B500BF002000901148006840F48040C5
:101A40000F4908600846006800F48040009000BF1D
:101A500000BF00BF00200090081F006840F08050C9
:101A6000091F08600846006800F08050009000BF21
:101A700000BF00220F21901E00F014F808BD0000E6
:101A80004438024001460846002809DB00F01F03E5
:101A900001229A4043099B0003F1E023C3F800218F
:101AA00000BF70472DE9F05F80460D4616460027BF
:101AB00002F0D8FB074639462A46334601F00700B4
:101AC000C0F1070ABAF1040F02D94FF0040A01E08D
:101AD000C0F1070AD14600F1040ABAF1070F02D299
:101AE0004FF0000A01E0A0F1030AD4464FF0010ACA
:101AF0000AFA09FAAAF1010A0AEA020A0AFA0CFA2F
:101B00004FF0010B0BFA0CFBABF1010B0BEA030BD3
:101B10004AEA0B042146404602F0ACFBBDE8F09FC8
:101B200000BF00F00702064B19684FF6FF0319408B
:101B3000044B0B4343EA0221014B196000BF70477D
:101B40000CED00E00000FA0570B504460D460CB936
:101B5000012070BD5848006800F00700A84209D273
:101B600055490D700846006800F00700A84201D0F2
:101B70000120EEE7207800F0020002281DD1207835
:101B800000F00400042805D14C48006840F4E050FF
:101B90004A490860207800F00800082805D1474825
:101BA000006840F46040454908604448006820F0FF
:101BB000F000A168084341490860207800F0010066
:101BC000A8B36068012807D13C4808380068C0F312
:101BD0004040B8B90120BCE76068022802D06068C4
:101BE000032807D1354808380068C0F3406048B979
:101BF0000120AEE7314808380068C0F3400008B95A
:101C00000120A6E72D48006820F003006168084322
:101C10002A490860FFF736FD064609E0FFF732FD66
:101C2000801B41F28831884202D9032091E707E006
:101C30002248006800F00C006168B0EB810FEDD124
:101C40001D48006800F00700A84209D91A490D7024
:101C50000846006800F00700A84201D0012078E79C
:101C6000207800F00400042807D11448006820F40C
:101C7000E050E168084311490860207800F008004E
:101C8000082808D10D48006820F46040216940EA26
:101C9000C1000A49086000F061F808490968C1F309
:101CA0000311074A515CC8400649086006480068AD
:101CB000FFF764FE00204CE7003C02400838024079
:101CC000886700081C000020140000200F2202601A
:101CD0000D4A126802F0030242600B4A126802F0D9
:101CE000F0028260084A126802F4E052C260064ABA
:101CF000126802F46042D2080261044A126802F0DB
:101D000007020A607047000008380240003C0240A9
:101D100001480068704700001C00002000B5FFF774
:101D2000F7FF04490968C1F38221034A515CC840A6
:101D300000BD0000083802409867000800B5FFF7B2
:101D4000E7FF04490968C1F34231034A515CC840C6
:101D500000BD000008380240986700082DE9F047F0
:101D6000002400250026A1462548006800F00C004C
:101D700020B1042805D008283AD105E0DFF8849086
:101D800039E0DFF8849036E01D48001F006800F05D
:101D90003F041B48001F006800F4800078B11A4817
:101DA0001749091F0968C1F38811A0FB017001469A
:101DB000224600233846FEF7B7FA05460EE01148E2
:101DC0000F49091F0968C1F38811A0FB0170014682
:101DD000224600233846FEF7A7FA05460848001FAA
:101DE0000068C0F30140401C4600B5FBF6F902E074
:101DF000DFF8109000BF00BF4846BDE8F087000044
:101E0000083802400024F400001BB700F8B504466F
:101E10000CB90120F8BD207800F00100002874D032
:101E2000F948006800F00C0004280DD0F64800685E
:101E300000F00C00082813D1F348001F006800F4DC
:101E40008000B0F5800F0BD1EF4808380068C0F370
:101E50004040002859D06068002856D10120D9E7B9
:101E600000BF6068B0F5803F08D1E74808380068D7
:101E700040F48030E449083908601EE06068B0F53D
:101E8000A02F0DD1E0480838006840F48020DE49DA
:101E9000083908600846006840F4803008600CE0AB
:101EA000D9480838006820F48030D74908390860DC
:101EB0000846006820F48020086000BF606890B188
:101EC000FFF7E0FB054606E0FFF7DCFB401B64285C
:101ED00001D903209EE7CC4808380068C0F3404091
:101EE0000028F1D011E0FFF7CDFB054606E0FFF733
:101EF000C9FB401B642801D903208BE7C24808387E
:101F00000068C0F340400028F1D1207800F00200C2
:101F100002285FD1BC48006800F00C0058B1BA48F4
:101F2000006800F00C0008281CD1B748001F0068AA
:101F300000F48000B0B9B44808380068C0F340002D
:101F400020B1E068012801D0012063E7AE480838DD
:101F5000006820F0F800216940EAC100AA49083968
:101F6000086037E0E06800B30120A8490860FFF787
:101F700089FB054606E0FFF785FB401B022801D9D7
:101F8000032047E7A04808380068C0F34000002855
:101F9000F1D09D480838006820F0F800216940EA37
:101FA000C10099490839086014E000209749086089
:101FB000FFF768FB054606E0FFF764FB401B0228BD
:101FC00001D9032026E7904808380068C0F3400094
:101FD0000028F1D1207800F0080008282CD1606991
:101FE000A8B101208A490860FFF74CFB054606E0CE
:101FF000FFF748FB401B022801D903200AE782486B
:102000006C300068C0F340000028F1D014E00020DC
:102010007F490860FFF736FB054606E0FFF732FB15
:10202000401B022801D90320F4E677486C30006891
:10203000C0F340000028F1D1207800F0040004280B
:1020400070D1002770483830006800F0805090B997
:1020500000BF002000906C483830006840F080508D
:102060006949383108600846006800F080500090E7
:1020700000BF00BF01276748006800F48070B0B956
:102080006448006840F4807062490860FFF7FAFA1B
:10209000054606E0FFF7F6FA401B022801D90320A7
:1020A000B8E65C48006800F480700028F2D000BFF9
:1020B000A068012808D154486830006840F0010049
:1020C0005149683108601DE0A06805280DD14E48CF
:1020D0006830006840F004004B49683108600846E9
:1020E000006840F0010008600CE047486830006874
:1020F00020F001004449683108600846006820F07B
:102100000400086000BFA068A8B1FFF7BBFA05464D
:1021100009E0FFF7B7FA401B41F28831884202D943
:10212000032077E626E0384868300068C0F34000B6
:102130000028EED013E0FFF7A5FA054608E0FFF708
:10214000A1FA401B41F28831884201D9032061E69F
:102150002D4868300068C0F340000028EFD1012FFF
:1021600007D129483830006820F08050264938319E
:10217000086000BFA069002845D02348006800F02F
:102180000C0008285DD0A069022845D100201F4915
:102190000866FFF777FA054606E0FFF773FA401B7B
:1021A000022801D9032035E6174808380068C0F333
:1021B00040600028F1D1D4E907010843616A40EA90
:1021C00081110122A06AC2EB500041EA00412C209B
:1021D000005D41EA00600C49091F086001200B49BD
:1021E0000866FFF74FFA054606E0FFF74BFA401B7B
:1021F000022801D903200DE6034808380068C0F31F
:1022000040600028F1D049E0083802400000474211
:10221000800E474200700040002021490866FFF709
:1022200031FA054606E0FFF72DFA401B022801D9D6
:102230000320EFE51B480068C0F340600028F2D19E
:102240002CE0A069012800D1E4E51648001D0668CD
:10225000A069012820D006F48001E06981421BD1E9
:1022600006F03F01206A814216D147F6C070304027
:10227000616AB0EB811F0FD106F440310122A06AE0
:10228000C2EB5000B1EB004F06D106F070612C207C
:10229000005DB1EB006F01D00120BBE50020B9E586
:1022A000000047420038024010B504460CB9012036
:1022B00010BD606A38B96068B0F5827F00D105E072
:1022C0000021E16102E00021216161610021A16240
:1022D00094F8510028B9002084F85000204600F0FE
:1022E00047F8022084F851002068006820F0400080
:1022F00021680860A08800F48270218901F40441FB
:102300000843A18901F400610843217C01F0020126
:102310000843217D01F001010843218B01F4007184
:102320000843217F01F0380108432021095D01F0B5
:1023300080010843218D01F40051084321680860A1
:102340000421A06901EA104094F8241001F0100162
:102350000843216848602068C06920F40060216853
:10236000C86100206065012084F8510000209FE7CB
:1023700010B586B00446142101A8FEF786F84B4933
:10238000206888427ED100BF002000904848006845
:1023900040F48050464908600846006800F48050C8
:1023A000009000BF00BF00BF0020009040481438DC
:1023B000006840F002003E49143908600846006891
:1023C00000F00200009000BF00BF00BF002000909E
:1023D0000846006840F0010008600846006800F008
:1023E0000100009000BF00BF182001900220029061
:1023F00001200390032004900520059001A92D4899
:10240000FFF740F880200190022002900120039005
:10241000032004900520059001A92748FFF732F812
:102420002648274908604FF0C060486000212448D2
:102430008160C1604FF4806101610021416181616F
:10244000C1614FF44031016200214162FEF7A4FFF7
:1024500008B1FEF763F900BF1948E064846300BF68
:1024600016481830174908604FF0C0604860402196
:10247000144881600021C1604FF480610161002136
:10248000416100E010E08161C1614FF400310162FF
:1024900000214162FEF780FF08B1FEF73FF900BF5F
:1024A0000848A064846300BF06B010BD003001403E
:1024B00044380240000402400000024040640240F0
:1024C00004040020640400207047704710B50346E0
:1024D000002200BF93F83C00012801D1022010BD6A
:1024E000012083F83C0000BF22F0FF00CC6840EAE6
:1024F000040222F440708C6840EA040222F48060F6
:102500004C6840EA040222F400600C6840EA0402CD
:1025100022F480500C6940EA040222F400504C6915
:1025200040EA040222F48040CC6940EA04021868C0
:10253000426400BF002083F83C0000BF00BFCEE72C
:1025400030B502460B4600BF92F83C00012801D18D
:10255000022030BD012082F83C0000BF022082F83A
:102560003D00106844681068816824F070041868A1
:10257000044310684460184D1068A8421BD01068CE
:10258000B0F1804F17D0154D1068A84213D0144DEC
:102590001068A8420FD0134D1068A8420BD0124DFE
:1025A0001068A84207D0114D1068A84203D0104D02
:1025B0001068A84205D121F08001586801431068D5
:1025C0008160012082F83D0000BF002082F83C00BD
:1025D00000BF00BFBDE70000000001400004004054
:1025E00000080040000C0040000401400040014091
:1025F0000018004010B504460CB9012010BD94F835
:102600003D0028B9002084F83C00204600F026F860
:10261000022084F83D00211D206801F0E3FA01202A
:1026200084F8460000BF84F83E0001213F20015598
:10263000402001554120015500BF00BF012084F812
:10264000420043200155442001554520015500BF5B
:10265000012084F83D000020D0E7000038B5044692
:102660003849206888420FD100BF002000903648CA
:10267000006840F00100344908600846006800F036
:102680000100009000BF5CE030492068884211D111
:1026900000BF002000902C48001F006840F004009C
:1026A0002949091F08600846006800F004000090EE
:1026B00000BF46E026492068884211D100BF0020B3
:1026C00000902148001F006840F008001E49091FC3
:1026D00008600846006800F00800009000BF30E085
:1026E0001C492068884218D100BF0020009016487D
:1026F000006840F00200144908600846006800F0D5
:102700000200009000BF00BF00220F212D20FFF724
:10271000C9F92D20FFF7B6F913E00F492068884268
:102720000FD100BF002000900748006840F400303F
:10273000054908600846006800F40030009000BFBA
:1027400000BF38BD0000014044380240000800408E
:10275000000C00400004014000440140014691F893
:102760003D00012801D001207047022081F83D0082
:102770001A4B086898421BD00868B0F1804F17D0F8
:10278000174B0868984213D0164B086898420FD030
:10279000154B086898420BD0144B0868984207D034
:1027A000134B0868984203D0124B086898420CD12A
:1027B0000868806800F00702062A0CD008680068E4
:1027C00040F001000B68186005E00868006840F000
:1027D00001000B6818600020C6E7000000000140FF
:1027E0000004004000080040000C004000040140CC
:1027F0000040014000180040014691F83D000128CA
:1028000001D001207047022081F83D000868C068AF
:1028100040F001000B68D8601A4B086898421BD042
:102820000868B0F1804F17D0174B0868984213D052
:10283000164B086898420FD0154B086898420BD089
:10284000144B0868984207D0134B0868984203D08D
:10285000124B086898420CD10868806800F00702A3
:10286000062A0CD00868006840F001000B68186068
:1028700005E00868006840F001000B68186000205F
:10288000C0E70000000001400004004000080040D4
:10289000000C0040000401400040014000180040CE
:1028A0002DE9F04104460D46002700BF94F83C0096
:1028B000012802D10220BDE8F081012084F83C000B
:1028C00000BF022084F83D002068866826F0770665
:1028D00026F47F46206886602868502833D00CDCB8
:1028E000202850D004DC00284BD0102851D149E0DA
:1028F000302849D040284CD139E060282DD07028AC
:1029000007D0B0F5805F03D0B0F5005F41D10DE096
:1029100041E0D5E902136A68206801F0E0F9206817
:10292000866846F077062068866034E0D5E90213B1
:102930006A68206801F0D3F92068806840F480401C
:102940002168886027E0EA686968206801F0B8FAC1
:102950005021206801F0CEF91DE0EA68696820681E
:1029600001F0C1FA6021206801F0C4F913E0EA68BF
:102970006968206801F0A4FA4021206801F0BAF9E2
:1029800009E000BF00BF00BF2968206801F0B2F96C
:1029900001E0012700BF00BF012084F83D0000BF17
:1029A000002084F83C0000BF384684E7704710B52B
:1029B000044620680069C0F34000D8B12068C068B0
:1029C000C0F34000B0B16FF002002168086101203F
:1029D00020772068806900F0030018B12046FFF7D7
:1029E000E5FF05E0204600F097F9204600F04BFA9D
:1029F0000020207720680069C0F38000D8B12068EB
:102A0000C068C0F38000B0B16FF0040021680861B5
:102A1000022020772068806900F4407018B12046B9
:102A2000FFF7C4FF05E0204600F076F9204600F0ED
:102A30002AFA0020207720680069C0F3C000D8B1CE
:102A40002068C068C0F3C000B0B16FF00800216812
:102A50000861042020772068C06900F0030018B1E5
:102A60002046FFF7A3FF05E0204600F055F9204679
:102A700000F009FA0020207720680069C0F30010F8
:102A8000D8B12068C068C0F30010B0B16FF010007A
:102A900021680861082020772068C06900F4407030
:102AA00018B12046FFF782FF05E0204600F034F918
:102AB000204600F0E8F9002020772068006900F047
:102AC000010058B12068C06800F0010030B16FF01B
:102AD000010021680861204600F05CFA2068006966
:102AE000C0F3C01058B12068C068C0F3C01030B146
:102AF0006FF08000216808612046FFF7E5FC206840
:102B00000069C0F3801058B12068C068C0F380101D
:102B100030B16FF0400021680861204600F046FAAD
:102B200020680069C0F3401058B12068C068C0F345
:102B3000401030B16FF02000216808612046FFF797
:102B4000C4FC10BD10B586B00446142101A8FDF7E1
:102B50009CFC6549206888421ED100BF002000907F
:102B60006248006840F0100060490860084600684C
:102B700000F01000009000BF00BF4FF428500190FB
:102B8000022002900020039004900120059001A9EA
:102B90005748FEF777FCA5E05649206888421ED1C9
:102BA00000BF002000905148006840F008004F49E5
:102BB00008600846006800F00800009000BF00BFF1
:102BC0004FF4804001900220029000200390049076
:102BD0000220059001A94848FEF754FC82E04749CD
:102BE000206888421ED100BF002000903F48006846
:102BF00040F080003D4908600846006800F0800011
:102C0000009000BF00BF4FF4E050019002200290FE
:102C10000020039002200490059001A93848FEF797
:102C200031FC5FE037492068884239D100BF00207D
:102C300000902E48006840F480702C4908600846D7
:102C4000006800F48070009000BF00BF00BF00204B
:102C500000900846006840F00400086008460068DC
:102C600000F00400009000BF00BFC02001900220CF
:102C700002900020039004900320059001A92248AF
:102C8000FEF700FC402001900220029000200390FB
:102C900004900320059001A91C48FEF7F3FB21E0F6
:102CA0001B49206888421DD100BF002000900F48BA
:102CB000006840F020000D4908600846006800F0F8
:102CC0002000009000BF00BF402001900220029031
:102CD00000200390022004900320059001A90D48D4
:102CE000FEF7D0FB06B010BD0000014030380240B6
:102CF0000010024000080040000C0240000C0040A0
:102D0000001C024000040140002002400008024074
:102D1000004401400014024070472DE9F041044690
:102D20000D461646002700BF94F83C00012802D14A
:102D30000220BDE8F081012084F83C0000BF36B1DC
:102D4000042E1BD0082E31D00C2E5ED145E0294632
:102D5000206800F0D9FF2068806940F008002168F1
:102D600088612068806920F00400216888612068FB
:102D70008069296908432168886148E029462068FC
:102D800000F0FAFF2068806940F4006021688861E3
:102D90002068806920F480602168886120688069EB
:102DA000296940EA01202168886130E029462068CD
:102DB00001F020F82068C06940F008002168C8616F
:102DC0002068C06920F004002168C8612068C069DB
:102DD000296908432168C86119E02946206801F083
:102DE00045F82068C06940F400602168C861206827
:102DF000C06920F480602168C8612068C0692969C1
:102E000040EA01202168C86101E0012700BF00BF3E
:102E100000BF002084F83C0000BF384689E710B5A9
:102E200004460CB9012010BD94F83D0028B90020DB
:102E300084F83C00204600F025F8022084F83D008C
:102E4000211D206800F0CEFE012084F8460000BF5E
:102E500084F83E0001213F200155402001554120CA
:102E6000015500BF00BF012084F8420043200155F6
:102E7000442001554520015500BF012084F83D0044
:102E80000020D0E77047704770B504460D4615B96D
:102E900094F83E000BE0042D02D13F20005D06E0D7
:102EA000082D02D14020005D01E04120005D012895
:102EB00001D0012070BD1DB9022084F83E000EE053
:102EC000042D03D102213F20015508E0082D03D134
:102ED00002214020015502E002214120015501223A
:102EE0002946206800F0EAFE23492068884203D082
:102EF00022492068884201D1012000E0002028B149
:102F00002068406C40F40040216848641A492068F9
:102F100088421BD02068B0F1804F17D01849206834
:102F2000884213D01749206888420FD0164920687C
:102F300088420BD011492068884207D01349206885
:102F4000884203D01249206888420CD120688068EA
:102F500000F00706062E0CD02068006840F0010043
:102F60002168086005E02068006840F001002168E1
:102F7000086000209EE700000000014000040140BE
:102F80000004004000080040000C004000400140E8
:102F90000018004010B5044603492068884201D15A
:102FA000FEF7C2FC10BD000000200040704710B5C5
:102FB00004460CB9012010BDA06900B100E000BFBB
:102FC00094F83D0028B9002084F83C00204600F029
:102FD00027F8242084F83D002068C06820F40050C1
:102FE0002168C860204600F093FF2068006920F443
:102FF0009040216808612068406920F02A0021681B
:1030000048612068C06840F400502168C860002012
:103010002064202084F83D0084F83E000020CAE7A8
:1030200010B586B00446142101A8FDF72EFA3049E8
:10303000206888425AD100BF002000902D480068C7
:1030400040F480202B4908600846006800F4802086
:10305000009000BF00BF00BF00200090254810383E
:10306000006840F0040023491039086008460068F1
:1030700000F00400009000BF00BF4FF440600190DA
:103080000220029000200390032004900720059066
:1030900001A91948FEF7F6F91848194908604FF0D8
:1030A00000604860002116488160C1604FF4806173
:1030B00001610021416181614FF48071C1614FF470
:1030C0004031016200214162FEF766F908B1FDF767
:1030D00025FB00BF0A48A063846300BF00220521CE
:1030E0002720FEF7DFFC2720FEF7CCFC06B010BD42
:1030F000004800404038024000080240286002407A
:103100007006002000BFFEE710B50E480E490860AB
:103110000320486000210C488160C1604FF41021F9
:1031200001614FF400114161002101764176817601
:10313000C17601774177FDF72CFE08B1FDF7EEFA75
:1031400010BD0000006400400803002010B50E48C8
:103150000E4908600320486000210C488160C1606E
:103160004FF4102101614FF40011416100210176FB
:1031700041768176C17601774177FDF70AFE08B185
:10318000FDF7CCFA10BD00000068004030030020BD
:1031900008B500BF002000901A48006840F40010F5
:1031A000184908600846006800F40010009000BF4D
:1031B00000BF00BF002000900846006840F4800077
:1031C00008600846006800F48000009000BF00BF5F
:1031D000002205210C20FEF765FC0C20FEF752FCB6
:1031E000002211463A20FEF75DFC3A20FEF74AFC29
:1031F000002205213B20FEF755FC3B20FEF742FC58
:1032000008BD00003038024000B595B01C221249BC
:103210000EA8FDF700F900210EA801F019FA0F49D8
:1032200008601C220C491C3107A8FDF7F4F80021A6
:1032300007A801F00DFA0A4908601C220649383136
:103240006846FDF7E8F80021684601F001FA0549F3
:10325000086015B000BD00002C67000800000020C9
:10326000040000200800002008B500BF00200090E6
:103270003B48006840F00200394908600846006891
:1032800000F00200009000BF00BF00BF00200090CF
:103290000846006840F0010008600846006800F039
:1032A0000100009000BF00BF00BF00200090084652
:1032B000006840F0080008600846006800F0080058
:1032C000009000BF00BF00BF0020009008460068CB
:1032D00040F0040008600846006800F00400009018
:1032E00000BF00BF00BF002000900846006840F407
:1032F000807008600846006800F48070009000BF8D
:1033000000BF00BF002000900846006840F0800029
:1033100008600846006800F08000009000BF00BF11
:1033200000BF002000900846006840F020000860C0
:103330000846006800F02000009000BF00BF00BFFA
:10334000002000900846006840F010000860084621
:10335000006800F01000009000BF00BF08BD000032
:103360003038024010B50B480B4908600B484860E4
:10337000002109488160C1604FF480410161002152
:1033800041618161C1610162FEF782F908B1FDF717
:10339000C5F910BD005C004058030020801A0600EB
:1033A00010B50F480F4908604FF482704860002143
:1033B0000C488160C1600221016101214161490223
:1033C00081613821C16100210162416281620A216B
:1033D000C162FEF769FF08B1FDF7A0F910BD00005A
:1033E00000300140AC03002000B587B01C216846C6
:1033F000FDF74BF815481649086000204860002189
:103400001348816041F28731C1600021016181610F
:10341000FFF7F0F808B1FDF781F90D48FFF7FFFC61
:1034200008B1FDF77BF96020009000200190029028
:103430000490002269460648FFF76FFC08B1FDF7CB
:103440006DF90348FFF77EFB07B000BD0044014063
:10345000E405002000B595B0002011901290139063
:1034600014900F9010901C2108A8FDF70EF8202151
:103470006846FDF70AF8334833490860A7204860DA
:1034800000213148816044F61F61C1600021016163
:1034900041618161FFF7AEF808B1FDF73FF94FF4E4
:1034A0008050119011A92848FFF7FAF908B1FDF7EB
:1034B00035F92548FFF7B3FC08B1FDF72FF90020D7
:1034C0000F9010900FA92048FFF73AF808B1FDF7C8
:1034D00025F960200890002009900A900B900C902C
:1034E0000D900E90002208A91748FFF716FC08B1AE
:1034F000FDF714F9042208A91348FFF70EFC08B1E0
:10350000FDF70CF9082208A90F48FFF706FC08B1DF
:10351000FDF704F9002000900190029003900490C0
:103520004FF4005005900020079069460648FEF7CA
:10353000CDFF08B1FDF7F2F80348FFF703FB15B024
:1035400000BD000000000140C404002000B58DB0A3
:10355000002009900A900B900C90079008901C2175
:103560006846FCF792FF2048204908600020486028
:1035700000211E48816045F20721C16000210161E0
:103580008161FFF737F808B1FDF7C8F84FF48050B4
:10359000099009A91548FFF783F908B1FDF7BEF8AE
:1035A0001248FFF73CFC08B1FDF7B8F8002007907F
:1035B000089007A90D48FEF7C3FF08B1FDF7AEF864
:1035C000602000900020019002900490082269463B
:1035D0000648FFF7A2FB08B1FDF7A0F80348FFF784
:1035E000B1FA0DB000BD0000000800400C0500203D
:1035F00000B58DB0002009900A900B900C900790B8
:1036000008901C216846FCF740FF284828490860BC
:10361000002048600021264881604FF6FF71C1609C
:10362000002101618161FEF7E5FF08B1FDF776F841
:103630004FF48050099009A91D48FFF731F908B1EE
:10364000FDF76CF81A48FFF7EAFB08B1FDF766F8DA
:1036500000200790089007A91548FEF771FF08B1F0
:10366000FDF75CF86020009000200190029004902B
:10367000002269460E48FFF750FB08B1FDF74EF8EF
:10368000042269460A48FFF748FB08B1FDF746F8EF
:10369000082269460648FFF740FB08B1FDF73EF8EF
:1036A0000348FFF74FFA0DB000BD0000000C0040CA
:1036B0005405002000B595B0002011901290139091
:1036C00014900F9010901C2108A8FCF7DEFE20211A
:1036D0006846FCF7DAFE334833490860A7204860A3
:1036E00000213148816044F61F61C1600021016101
:1036F00041618161FEF77EFF08B1FDF70FF84FF4DD
:103700008050119011A92848FFF7CAF808B1FDF7B9
:1037100005F82548FFF783FB08B1FCF7FFFF002001
:103720000F9010900FA92048FEF70AFF08B1FCF790
:10373000F5FF60200890002009900A900B900C90F3
:103740000D900E90002208A91748FFF7E6FA08B17D
:10375000FCF7E4FF042208A91348FFF7DEFA08B1DA
:10376000FCF7DCFF082208A90F48FFF7D6FA08B1DA
:10377000FCF7D4FF00200090019002900390049089
:103780004FF4005005900020079069460648FEF768
:103790009DFE08B1FCF7C2FF0348FFF7D3F915B04F
:1037A00000BD0000000401409C05002010B50B483E
:1037B0000B4908600B484860002109488160C160DE
:1037C0004FF4806101610421416100218161C16187
:1037D000FFF7EDFB08B1FCF7A1FF10BD004800406A
:1037E0002C060020A086010000BFFEE700BFFEE718
:1037F000B0EE401A10B99FED790A704790ED100AAB
:1038000080ED110A90ED0F0A80ED100AC0ED060A56
:1038100080ED071A30EEC10A80ED0F0A0178002909
:1038200075D190ED010AD0ED0F1A20EE210A80ED3E
:10383000090A90ED0A0AD0ED021A90ED0F2A01EE66
:10384000820A80ED0A0A90ED0D0A80ED0E0A90EDD5
:103850000C0A80ED0D0A90ED0F0AD0ED101A30EE33
:10386000610A80ED0C0A90ED030AD0ED0C1A20EEEF
:10387000210A80ED0B0A90ED0A0AD0ED051AB4EE8C
:10388000E10AF1EE10FA04DD90ED050A80ED0A0A76
:1038900010E090ED0A0AD0ED051AF1EE611AB4EECF
:1038A000E10AF1EE10FA05D290ED050AB1EE400AF8
:1038B00080ED0A0A90ED090AD0ED0A1A30EE210ACD
:1038C000D0ED0B1A30EE210A80ED080A90ED080ABF
:1038D000D0ED041AB4EEE10AF1EE10FA04DD90ED39
:1038E000040A80ED080A76E090ED080AD0ED041A8B
:1038F000F1EE611AB4EEE10AF1EE10FA6BD290ED3E
:10390000040AB1EE400A80ED080A64E0FFE701789E
:10391000012960D190ED0F0AD0ED101A30EE610A46
:10392000D0ED011A20EE210A80ED090A90ED020A7D
:10393000D0ED0F1A20EE210A80ED0A0A90ED0D0A53
:1039400080ED0E0A90ED0C0A80ED0D0A90ED0F0A45
:10395000D0ED101AB0EE002A02EE610AD0ED111A75
:1039600030EE210A80ED0C0A90ED030AD0ED0C1A1E
:1039700020EE210A80ED0B0A90ED090AD0ED0A1A1B
:1039800030EE210AD0ED0B1A30EE210AD0ED081AE4
:1039900030EE210A80ED080A90ED080AD0ED041AF5
:1039A000B4EEE10AF1EE10FA04DD90ED040A80EDC8
:1039B000080A10E090ED080AD0ED041AF1EE611A41
:1039C000B4EEE10AF1EE10FA05D290ED040AB1EE80
:1039D000400A80ED080A90ED080A0EE7000000009A
:1039E00000B97047017080ED010AC0ED020A80ED58
:1039F000031AC0ED041A80ED052ADFED0D2AC0ED93
:103A00000E2AC0ED0D2AC0ED0C2ADFED092AC0ED0B
:103A1000082AC0ED0B2AC0ED0A2AC0ED092AC0ED24
:103A2000112AC0ED102AC0ED0F2A00BFD9E700000F
:103A30000000000010B5234B1B685B6943F0400396
:103A4000204C246863611F4B1B68DB6843F0100344
:103A50001C4C2468E3601C4B1B681B6823F00103AB
:103A6000194C2468236007E0174B1B681B6823F080
:103A70000103154C24682360134B1B681B6803F07B
:103A80000103002BF0D1114B0F4C2468A3600E4BA7
:103A90001B68D8600C4B1B6819610B4B1B685A6084
:103AA000094B1B681B6843F48023074C2468236080
:103AB000054B1B681B6843F00103034C246823601B
:103AC00010BD00002C0600207006002004480040B5
:103AD00010B500BF502080F31188BFF34F8FBFF3A4
:103AE0006F8F00BF02F0E6F818B14FF08050044924
:103AF000086000BF002080F3118800BF10BD0000E7
:103B000004ED00E000B593B0302107A8FCF7BDFC40
:103B1000142102A8FCF7B9FC00BF00200190244842
:103B2000006840F08050224908600846006800F0B4
:103B30008050019000BF00BF00BF002001901D48D1
:103B4000006840F480401B4908600846006800F4A3
:103B50008040019000BF00BF012007900004089042
:103B600002200D9041050E9106210F91A821109180
:103B7000022111910421129107A8FEF747F908B11B
:103B8000FCF7CCFD0F20029002200390002004904F
:103B90004FF4A05005904FF480500690052102A8E4
:103BA000FDF7D2FF08B1FCF7B9FD13B000BD00006E
:103BB00040380240007000400348006840F4700044
:103BC000014908607047000088ED00E010B5034827
:103BD000FEF7EDFE0248FEF7EAFE10BD9C05002050
:103BE000D006002010B50268294B98420ED0B0F1E3
:103BF000804F0BD0274B984208D0274B984205D0D6
:103C0000264B984202D0264B984203D122F07002F4
:103C10004B681A431E4B984220D0B0F1804F1DD004
:103C20001C4B98421AD01C4B984217D01B4B984201
:103C300014D01B4B984211D01A4B98420ED01A4BFD
:103C400098420BD0194B984208D0194B984205D096
:103C5000184B984202D0184B984203D122F440727C
:103C6000CB681A4322F080034C6943EA04020260E5
:103C70008B68C3620B688362054B984202D0084B85
:103C8000984201D10B6903630123436110BD000019
:103C9000000001400004004000080040000C00400B
:103CA0000004014000400140004401400048014040
:103CB00000180040001C00400020004030B501F01A
:103CC0001F05012404FA05F3046A9C430462046A94
:103CD00001F01F0502FA05F52C43046230BD30B532
:103CE0000C46816821F47F4142EA0325254329439C
:103CF000816030BD0A46816821F0700142F00703FF
:103D0000194381607047000030B5056A25F0010550
:103D10000562026A4368846924F0700424F0030495
:103D20000D682C4322F002028D682A43104DA842F0
:103D300000D103E00F4DA84206D100BF22F00802D7
:103D4000CD682A4322F00402094DA84202D0094D51
:103D5000A84207D123F4807323F400734D692B43E9
:103D60008D692B43436084614D684563026230BDB9
:103D7000000001400004014030B5056A25F010053F
:103D80000562026A4368846924F4E04424F44074C0
:103D90000D6844EA052422F020028D6842EA0512EB
:103DA000124DA84200D103E0114DA84207D100BF37
:103DB00022F08002CD6842EA051222F040020B4D4B
:103DC000A84202D00A4DA84209D123F4806323F40B
:103DD00000634D6943EA85038D6943EA85034360C7
:103DE00084614D688563026230BD000000000140BF
:103DF0000004014030B5056A25F480750562026A49
:103E00004368C46924F0700424F003040D682C4353
:103E100022F400728D6842EA0522124DA84200D1B8
:103E200003E0114DA84207D100BF22F40062CD6823
:103E300042EA052222F480620A4DA84202D00A4DCD
:103E4000A84209D123F4805323F400534D6943EA77
:103E500005138D6943EA05134360C4614D68C5636A
:103E6000026230BD000001400004014030B5056A27
:103E700025F480550562036A4468C26922F4E04271
:103E800022F440720D6842EA052223F400538D6843
:103E900043EA0533084DA84202D0084DA84204D198
:103EA00024F480444D6944EA85144460C2614D683D
:103EB0000564036230BD00000000014000040140C1
:103EC00030B50B461446026A056A25F00105056205
:103ED000816921F0F00141EA041122F00A021A433B
:103EE0008161026230BD30B50B461446056A25F08B
:103EF000100505628169026A21F4704141EA0431CA
:103F000022F0A00242EA03128161026230BD000089
:103F10002DE9F84F04462068006920F44050E1681C
:103F20000843216808612169A06808436169084362
:103F3000E169084300902068C06849F20C61884339
:103F4000009908432168C8602068406920F44070E7
:103F5000A16908432168486176492068884203D0F6
:103F600075492068884203D1FDF7E8FE814602E0EA
:103F7000FDF7D4FE8146E069B0F5004F6CD1022018
:103F80006168A0FB015003461920A9FB007001469F
:103F90002A463846FCF7C8F96421B0FBF1F04FEA35
:103FA000001A02206168A0FB01510B461920A9FBF1
:103FB00000712A463846FCF7B7F98346022061684B
:103FC000A0FB015003461920A9FB00712A46384680
:103FD000FCF7AAF96421B0FBF1F000EBC00101EBA2
:103FE0000010ABEB8000322101EBC0006421B0FB7C
:103FF000F1F000F0F8000AEB400A02206168A0FB33
:10400000015003461920A9FB007001462A46384694
:10401000FCF78AF9834602206168A0FB0150034641
:104020001920A9FB00712A463846FCF77DF9642166
:10403000B0FBF1F000EBC00101EB0010ABEB800036
:10404000322101EBC0006421B0FBF1F000F0070069
:104050005044216888606AE004206168A0FB015038
:1040600003461920A9FB007001462A463846FCF792
:104070005BF9824604206168A0FB015003461920C9
:10408000A9FB007001462A463846FCF74DF9642129
:10409000B0FBF1F000EBC00101EB0010AAEB8000D7
:1040A000322101EB00106421B0FBF1F000F0F00AC6
:1040B00004206168A0FB017003461920A9FB005190
:1040C0003A462846FCF730F96421B0FBF1F00AEBE0
:1040D000001A04206168A0FB01510B461920A9FBBE
:1040E00000712A463846FCF71FF9834604206168B0
:1040F000A0FB015003461920A9FB007001462A4687
:104100003846FCF711F96421B0FBF1F000EBC00177
:1041100001EB0010ABEB8000322101EB00106421B9
:10412000B0FBF1F000F00F00504421688860BDE85A
:10413000F88F0000001001400014014008B541480C
:104140000068006800F0200060B100BF002000900F
:104150003C480068006800903A4800684068009059
:1041600000BF6EE03848006800F01000002868D0FA
:1041700000BF00200090334800680068009031487C
:1041800000684068009000BF00BF304800680068C9
:1041900000F4002058BB2D480068006820F00100A2
:1041A0002A4909680860294800684068C0F124006D
:1041B0002749088024202549096848602348006869
:1041C000006840F400202149096808601F48006821
:1041D000006840F001001D49096808601C4800881B
:1041E00012282ED11B491C4800F076FD29E0174803
:1041F0000068006820F0010014490968086013484D
:1042000000684068C0F124001149088024200F494B
:10421000096848601148806A20F400200F498862CC
:104220000A480068006840F0010008490968086011
:1042300007480088122804D106490748243000F0B6
:104240004BFD08BD2C0600200048004070060020F1
:1042500020000020180700202E07002000600240E8
:1042600000BFFEE702480068C0F30220704700006C
:104270000CED00E010B5002804DB0A07130E054A18
:10428000135406E00A07140E034A00F00F031B1F25
:10429000D45410BD00E400E018ED00E02DED020B59
:1042A000019820F0004001909DED000B02B0704796
:1042B00010B52DED020B2DED088B84B09DED0C0B90
:1042C00051EC100B02F072F841EC180B9DED0C0B49
:1042D00053EC182B51EC100B02F0C2F841EC190B07
:1042E0000D989FED290B10F0004F53EC102B51EC63
:1042F000190B9FED21AB9FED22BB0ED001F0E6FE26
:104300000ED953EC1B2B51EC190B02F019F81CD2EF
:1043100014E000BF41EC180B17E001F0D7FE06D205
:1043200053EC1A2B51EC180B02F09AF8F2E753EC0D
:104330001B2B51EC190B02F003F806D853EC1A2B87
:1043400051EC180B01F00EFEE4E78DED028B9DEDB4
:104350000C0B18EE901A10EE900A8DED000B61F325
:104360001E0003909DED020B04B0BDEC088B02B063
:1043700010BD000000000000000000000000F03F41
:10438000000000000000E03F000000000000E0BF6F
:1043900010B50448FEF7E2F908210248FEF774FD63
:1043A00010BD00000C05002000B58BB00120099065
:1043B00000200790012008900020019002900390B7
:1043C00004900690059001A90C48FCF76BFA0B4885
:1043D000FCF78BFE02210948FCF7A3F90E200A9096
:1043E000069001A90648FCF75DFA0548FCF77DFE3A
:1043F00002210348FCF795F90BB000BD080300202B
:104400003003002041E0012211032048FDF734F978
:1044100000224FF400611D48FDF72EF900224FF4F1
:1044200080611A48FDF728F94FF4FA7000F0FFF8A0
:1044300000224FF480511548FDF71EF90122D102E8
:104440001248FDF719F900224FF480610F48FDF77B
:1044500013F94FF4FA7000F0EAF800224FF480519B
:104460000A48FDF709F900224FF400610748FDF7FB
:1044700003F9012291020548FDF7FEF84FF4FA70A6
:1044800000F0D5F80A2000F0D2F8BCE7001C02408A
:104490000048704738080020004870475008002046
:1044A0004A780B7842EA03220280028842817047F0
:1044B000028802814A780B7842EA03220280CA7895
:1044C0008B7842EA032212B242804A790B7942EA9F
:1044D000032212B282808A79827170470048704745
:1044E0001807002001880289891AB1F5805F03DD71
:1044F000C168491EC16008E001880289891A11F566
:10450000805F02DAC168491CC160C168123111B90B
:104510001221C16005E0C168132902D16FF01001BA
:10452000C1600288C16802EB41314289891A016188
:104530000169B1F5103F03DA016911F5103F08DA9E
:104540000169002901DD034A01E04FF49022114482
:10455000016170470080FBFF004870472008002081
:1045600010B500BF012000F062F8FBE7B4EEE01ADE
:10457000F1EE10FA00D27047B4EEC10AF1EE10FA73
:104580000EDD31EE602AF0EE421A03E030EE612AD1
:10459000B0EE420AB4EEC10AF1EE10FAF6DC13E016
:1045A000B4EEE00AF1EE10FA0ED231EE602AF0EE2F
:1045B000421A03E030EE212AB0EE420AB4EEE00ADD
:1045C000F1EE10FAF6D300BF00BFD4E7FDF7B8F95B
:1045D000FFF798FAFEF748FEFEF7DAFDFFF7E6F878
:1045E000FFF706F8FEF7B2FFFEF78EFDFEF7AEFD11
:1045F000FEF730FFFFF75EF8FEF7B4FEFEF7D0FEE1
:10460000FEF7F2FE00F05EFBFFF7C2FEFFF7CCFE06
:1046100000F0D0FBFEF7F8FD00F015F800BFFEE754
:1046200001460020842901D0CA1C1044704770B58F
:10463000044625460DB1294600E00121084601F057
:1046400021F9002070BD10B501F04AF9002010BD1D
:104650007FB504460D46606998B1A06988B1B4F988
:104660000800FFF7DDFF0646D4E90510CDE900613B
:1046700002902B462269D4E9001001F0BDFA0390A4
:1046800013E0B4F90800FFF7CBFF064603A8CDE915
:104690000060238A9AB22B46D4E9001001F07AFA1E
:1046A000012802D0002004B070BD0398FBE7000091
:1046B0002DE9F04105460E461F48076800201F49B6
:1046C000096881F852001D480068001D00F0D6FFFF
:1046D00050B91A48006890F82C10012088401849F9
:1046E0000968814316480160681C38B936B113481F
:1046F0000168091D134801F00BF81AE07C190F48F6
:1047000000684460BC4207D20C480168091D0E488D
:10471000006800F0E3FF0CE008480168091D0B4841
:10472000006800F0DBFF0A480068844201D20848B4
:104730000460BDE8F0810000600000204C00002013
:1047400064000020BC0A002054000020500000201B
:104750007C00002010B5044600F0E6FF2348006806
:10476000401C224908602248006840B92048046083
:104770000846006801280DD100F046F90AE01D48FE
:10478000006838B91A480068C06AE16A884201D8EE
:104790001748046018480068401C1749086094F8DE
:1047A0002C10012088401549096808431349086006
:1047B000E16A01EB8101124A02EB8100211D00F048
:1047C000A7FF00F0DBFF0B48006868B108480068ED
:1047D000C06AE16A884207D24FF0805009490860F8
:1047E000BFF34F8FBFF36F8F10BD00005C00002040
:1047F0004C000020680000207800002064000020A9
:10480000E009002004ED00E010B516E000F08CFF98
:104810000C48C068C468201D00F030FF0A480068DA
:10482000401E0949086009480068401E07490860A1
:1048300000F0A4FF204600F00BF8044800680028B0
:10484000E4D110BDA80A00205C0000205800002020
:1048500010B5044694F8510030B9206B00F0ACFF5D
:10486000204600F0A9FF1AE094F85100012803D176
:10487000204600F0A1FF12E094F85100022801D177
:10488000012000E0002050B900BF502080F31188C3
:10489000BFF34F8FBFF36F8F00BF00BFFEE710BDA8
:1048A00030B54FF47053174800F007042CB1C01D09
:1048B00020F00700134C041B1B1B0246124C226005
:1048C0000024114D6C60D018083820F007000F4C00
:1048D000206000240D4D2D686C600C4D2D682C60FF
:1048E0001146441A4C60094C24680C60084D4C6811
:1048F0002C60084D4C682C604FF00044064D2C6035
:1049000030BD0000D00A0020880000209000002068
:104910009800002094000020A400002000BFFFF7B2
:1049200073FF064800680128F9D94FF08050044908
:104930000860BFF34F8FBFF36F8FF0E7E0090020EF
:1049400004ED00E02DE9F05F82460E4690469B465E
:104950000A9F0C9C4FEA8801A522206BFBF78DFD76
:10496000A8F10100216B01EB800929F0070909F08A
:10497000070008B9012000E0002050B900BF502016
:1049800080F31188BFF34F8FBFF36F8F00BF00BF5D
:10499000FEE786B1002507E0715D04F13400415562
:1049A000705D00B902E06D1C102DF5D300BF002131
:1049B0004320015502E0002084F83400072F00D383
:1049C0000627E76267640020A064201D00F083FED4
:1049D00004F1180000F07FFE2461C7F10700A06118
:1049E00064620020E06484F8500084F852005A4663
:1049F0005146484600F050F920600B9808B10B98DA
:104A00000460BDE8F09F000010B5002407E004EB4F
:104A100084010F4A02EB810000F050FE641C072C59
:104A2000F5D30C4800F04AFE0B4800F047FE0B4857
:104A300000F044FE0A4800F041FE0A4800F03EFE45
:104A400004480949086004480849086010BD00008E
:104A5000E00900206C0A0020800A0020940A00204F
:104A6000A80A0020BC0A00205000002054000020AA
:104A700010B50146164800E0006803688B42FBD37E
:104A80000246436813448B4204D143684C68234474
:104A9000436001460A464B6813440468A34211D19F
:104AA0000C4C03682468A34208D04B68046864680F
:104AB00023444B6003681B680B6005E0054B1B68D3
:104AC0000B6001E003680B60884200D0016010BDFC
:104AD00088000020900000200A490968096809B987
:104AE000012100E0002121B14FF0FF31064A1160A1
:104AF00006E004490968C968C868034A416811604A
:104B000070470000500000207C0000200E48006824
:104B1000401C08B9012000E0002050B900BF50201F
:104B200080F31188BFF34F8FBFF36F8F00BF00BFBB
:104B3000FEE700BF502080F31188BFF34F8FBFF313
:104B40006F8F00BF00BFFEE7A80000202DE9F041F5
:104B500004464FF0000800F01BFF4948006808B900
:104B6000FFF79EFE474800682040002870D1D4B16E
:104B7000083404F00700B0B104F00700C0F10800E9
:104B8000044404F0070008B9012000E0002050B9F7
:104B900000BF502080F31188BFF34F8FBFF36F8F9A
:104BA00000BF00BFFEE7002C52D0374800688442A7
:104BB0004ED8364E3046056801E02E462D686868AE
:104BC000A04202D228680028F7D12D48006885420B
:104BD0003ED0306800F10808286830606868001B23
:104BE000102819D92F1907F0070008B9012000E093
:104BF000002050B900BF502080F31188BFF34F8FC1
:104C0000BFF36F8F00BF00BFFEE76868001B7860CE
:104C10006C603846FFF72CFF1B4968680968081A62
:104C2000194908600846006819490968884203D292
:104C30001548006816490860124968680968084301
:104C400068600020286013480068401C1149086013
:104C500001F0D4F808F0070008B9012000E00020B6
:104C600050B900BF502080F31188BFF34F8FBFF3BE
:104C70006F8F00BF00BFFEE74046BDE8F081000037
:104C800090000020A4000020940000208800002054
:104C9000980000209C000020001F4FF080730360EC
:104CA000001F21F001030360001F054B036014384F
:104CB0000260001F6FF0020303602038704700009D
:104CC0000D4B000810B524220249A1F12400FEF783
:104CD000B1FE10BD5207002000B101B97047027843
:104CE000437842EA0322C2F30A020A804278D210D1
:104CF000837842EA4312C2F30A024A808278921110
:104D0000C37842EA8302037942EA8322C2F30A02A9
:104D10008A8002795210437942EAC312C2F30A022E
:104D2000CA804279C2F301128A7242791211930841
:104D3000CB728279C37942EA032212B28A81027A63
:104D4000437A42EA032213B201F10C02CB81827A48
:104D5000C37A42EA032213B201F10C020B82037BF5
:104D60008B74437BCB74827BC37B42EA03228A82AF
:104D7000027C437C42EA032212B20A810A88A2F52D
:104D8000806212B20A804A88A2F5806212B24A801A
:104D90008A88A2F5806212B28A80CA88A2F58062EF
:104DA00012B2CA800A89A2F5806212B20A8100BFDB
:104DB00094E7000010B51148FDF7D0FC00210F4822
:104DC000FEF762F804210D48FEF75EF808210B4853
:104DD000FEF75AF800210948FEF756F80848FDF793
:104DE000BDFC00210648FEF74FF804210448FEF7F9
:104DF0004BF808210248FEF747F810BDC404002014
:104E00009C05002010B52DED088B664890F8280110
:104E100000287DD16348407804283DD1614890ED59
:104E2000440ADFED610A80EE201A11EE104A204696
:104E300001F000FC41EC1B0BB0EE4B0AF0EE6B0AEC
:104E4000FFF736FAB0EE40AAF0EE60AA9FED570BDE
:104E500053EC102B51EC1A0B01F074F941EC190BC7
:104E600001F04EF808EE900A9FED521ADFED520A5B
:104E7000B0EE680AFFF77AFBDFED500A30EE200A49
:104E8000B0EE408A9FED4B1ADFED4B0AFFF76EFB49
:104E9000444880ED450A3EE0424890ED440ADFED8B
:104EA000420A80EE201A11EE104A204601F0C2FBA1
:104EB00041EC1B0BB0EE4B0AF0EE6B0AFFF7F8F972
:104EC000B0EE40AAF0EE60AA9FED380B53EC102B29
:104ED00051EC1A0B01F036F941EC190B01F010F806
:104EE00008EE900A9FED331ADFED330AB0EE680A40
:104EF000FFF73CFBDFED320A30EE200AB0EE408ACD
:104F00009FED2C1ADFED2C0AFFF730FB254800E05F
:104F100005E080ED450A0120224981F82801214859
:104F2000D0ED450A90ED441A70EEC10AB0EE600A69
:104F30009FED201ADFED200AFFF718FB10EE104A54
:104F4000204601F077FB41EC190BB0EE490AF0EE78
:104F5000690AFFF7A3F9B0EE408AF0EE608A9FED90
:104F6000190B53EC102B51EC180B01F0E9F907D297
:104F7000B1EE0C0A0B4880ED410A00F019FB0EE07F
:104F800008484078042803D106200649087002E04A
:104F90000420044948700020024981F82801BDEC32
:104FA000088B10BDB0080020DB0F493F00000060F7
:104FB000FB21E93FDB0F4940DB0F49C0DB0F49BF55
:104FC000DB0FC9BE000000A09999A93F10B56F483A
:104FD000007828B99FED6E0A6C4880ED430A5CE0CA
:104FE0006A480078012805D19FED690A674880ED7D
:104FF000430A52E06548007802281FD1634890F8C0
:105000002901012807D1B0EE000A604880ED410A6D
:1050100000F0CEFA08E09FED5E0A5C4880ED410AA0
:105020009FED5B0A80ED430A9FED5A0A574880EDD9
:10503000090A9FED590A80ED0A0A2EE053480078CC
:10504000032805D19FED520A504880ED430A24E021
:105050004E48007804280BD19FED4E0A4B4880ED56
:10506000090A9FED4E0A80ED0A0AFFF7CBFE14E015
:1050700046480078052807D1B2EE040A434880ED7F
:10508000410A00F095FA08E040480078062804D16B
:105090009FED3F0A3D4880ED430A3C480078A8B99F
:1050A00000203A49A1F818019FED390A084680ED21
:1050B0003D0A9FED370A80ED3E0A9FED390A80EDEB
:1050C0003F0A9FED380A80ED400A5EE09FED360A08
:1050D0002E4880ED3D0A9FED350A80ED3E0A90EDA9
:1050E000431AFFEE001A21EE211AF0EE410A90ED6C
:1050F000421AB0EE410A1430FEF77AFB234890EDD5
:105100000D0ABDEEC00A10EE100A00B21F49A1F848
:105110001801084690ED3D1AF0EE410A90ED3B1A59
:10512000B0EE410A5C30FEF763FB184890ED1F0AB1
:10513000BDEEC00A10EE100A00B200EE100AB8EE82
:10514000C00A124880ED3F0A90ED3E1AF0EE410A87
:1051500090ED3C1AB0EE410AA430FEF749FB0B4833
:1051600090ED310ABDEEC00A10EE100A00B200EE5A
:10517000100AB8EEC00A054880ED400A00780228FF
:1051800003DA00200149A1F8180110BDB008002081
:105190000000000000401C4600C0DA4500A00C469C
:1051A0000000BE420000BEC200A08CC500A08C451D
:1051B000574890ED000A574880ED000A564890ED98
:1051C000000A534880ED000A544890ED000A504808
:1051D000D0ED000A20EE200A5048D0ED010A4D48DB
:1051E00090ED001A01EE200A4D488068B0F90200E7
:1051F00000EE900AF8EEE00A9FED4A1A60EE810A8E
:10520000464890ED021A00EE810A434880ED000AFC
:1052100090ED000A424880ED420AC068B0F90200F1
:1052200000EE100AB8EEC00A3D4880ED3B0A006966
:10523000B0F9020000EE100AB8EEC00A384880ED5E
:105240003C0A806890ED040AB8EEC00ADFED360A29
:1052500020EE200A324880ED440A90F81A013049C5
:1052600081F81C01084690F81B0181F81D010846D1
:105270004068807C81F81A0108464068C07C81F84B
:105280001B01084690F81A0160B10846B0F81E01EB
:10529000B0F5C87F0ADA0846B0F81E01401CA1F834
:1052A0001E0103E000201E49A1F81E011C4890F8D1
:1052B0001B0168B11A48B0F82001B0F5C87F0BDABD
:1052C0001748B0F82001401C1549A1F8200103E05F
:1052D00000201349A1F820011148007890B110482E
:1052E0004068C07A02280DD10D48B0F82201B0F50F
:1052F000A07F0BDA0A48B0F82201401C0849A1F847
:10530000220103E000200649A1F8220170470000B5
:10531000400000203C00002044000020A06700085E
:10532000B0080020F1A23E3BC2B8B23710B5002051
:10533000314908704870FFF7D1F82F494860FFF7EE
:105340000BF92D498860FFF7A3F82B49C860FFF7D8
:10535000A3F829490861FFF72BFF9FED282ADFED0D
:10536000281A9FED281AF6EE000A9FED270A002161
:1053700021481430FEF734FB9FED242ADFED201A7C
:105380009FED231ADFED220AB0EE040A00211A482D
:105390005C30FEF725FB9FED1D2ADFED191A9FED0E
:1053A0001C1ADFED1B0AB0EE040A00211248A430DB
:1053B000FEF716FB1048806890ED040AB8EEC00AAC
:1053C000DFED140A20EE200A0B4880ED440A00208D
:1053D0000949A1F8180181F82801084690ED440A0E
:1053E00080ED450A9FED070A80ED420A9FED050A10
:1053F00080ED430A10BD0000B008002000C0DA456F
:1054000000401C46000000000000484400007A44B0
:105410000AD7233CC2B8B23751484068C07A012845
:105420000AD150480078012806D04D48007818B9B4
:1054300001204B4908700EE049484068C07A0128B5
:1054400009D148480078012805D04548007810B1B6
:1054500000204349087042484068C07A03280CD1B4
:105460003F484068007D00F0400030B13C48007883
:1054700018B901203A49087010E039484068C07AEC
:1054800003280BD136484068007D00F0800028B129
:105490003348007810B10020314908703048007856
:1054A000012803D102202E4908702FE02C480078F3
:1054B000022803D103202A49087027E028480078F1
:1054C00003281CD126484068C07A022803D1254809
:1054D000007802280FD1224890F81A0118B120480C
:1054E00090F81C0138B11E4890F81B0170B11C489F
:1054F00090F81D0150B904201949087006E01848B9
:105500000078062802D10320154908701448007855
:1055100001281DDD1248B0F81E01B0F5C87F0BD080
:105520000F48B0F82001B0F5C87F05D00C48B0F89E
:105530002201B0F5A07F04D1052009490870487008
:1055400006E007480078052802D1022004490870C7
:1055500003484068C07A40B20249087070470000B2
:10556000B008002048000020FFF7E0FE1DE0FFF734
:1055700053FFFFF71DFEFFF729FD0C4BB3F9182170
:1055800093ED400ABDEEC00A10EE103A19B2074B77
:1055900093ED3F0ABDEEC00A10EE103A18B2002398
:1055A000FBF70CF8012000F06DF9E0E7B0080020EF
:1055B00010B52DED048B2E48B0F82401B0F52F7FE7
:1055C00005DA2B4890ED410A80ED430A06E02848B1
:1055D00090ED410AB1EE400A80ED430A244890ED77
:1055E000420A10EE101A084601F024F841EC190B9B
:1055F000B0EE490AF0EE690AFEF750FEB0EE408ABE
:10560000F0EE608A9FED1B0B53EC102B51EC180B46
:1056100000F05CFD10D21648B0F82401B0F52F7FE1
:105620000ADA1348B0F82401401C1149A1F82401FA
:105630000020A1F8260117E00D48B0F82401B0F5CC
:105640002F7F0DD10A48B0F82601B0F5487F07DA60
:105650000748B0F82601401C0549A1F8260103E0DF
:1056600000200349A1F82401BDEC048B10BD00000B
:10567000B0080020000000000000F03F01460A6969
:10568000D1E901309860D1E901035860506888423F
:1056900001D188685060002008611068401E1060C9
:1056A00010687047034B0360034B0B60802313604B
:1056B00070470000B40000200801002000F108013C
:1056C00041604FF0FF31816000F10801C16001616C
:1056D00000210160704700210161704710B502464A
:1056E0000B685C1C0CB9106907E002F1080000E0CF
:1056F0004068446824689C42FAD944684C604C680D
:10570000A160886041600A611468641C146010BD67
:1057100042684A6093688B60936859609160086141
:1057200003685B1C0360704700BF502080F3118842
:10573000BFF34F8FBFF36F8F00BF0E480068401C50
:105740000C49086008460068012812D10A48006820
:10575000C0B208B9012000E0002050B900BF5020BD
:1057600080F31188BFF34F8FBFF36F8F00BF00BF6F
:10577000FEE77047A800002004ED00E00D48006837
:1057800050B900BF502080F31188BFF34F8FBFF393
:105790006F8F00BF00BFFEE706480068401E054946
:1057A00008600846006820B9002080F3118800BF17
:1057B00000BF7047A800002070B506463546002E91
:1057C00044D0083D2C46224960680968084008B169
:1057D000012000E0002050B900BF502080F3118864
:1057E000BFF34F8FBFF36F8F00BF00BFFEE720688E
:1057F00008B9012000E0002050B900BF502080F31C
:105800001188BFF34F8FBFF36F8F00BF00BFFEE75C
:105810000F49606809680840C0B12068B0B90C49F8
:10582000606809688843606000F0B2F80949606800
:1058300009680844074908602046FFF719F9064837
:105840000068401C0449086000F0D8FA70BD0000F0
:10585000A400002094000020A000002000204FF0B1
:10586000E02108618861064800684FF47A71B0FB56
:10587000F1F0401E4FF0E0214861072008617047B9
:105880001C00002070B504460025D4B11248006801
:1058900008B9012000E0002050B900BF502080F37B
:1058A0001188BFF34F8FBFF36F8F00BF00BFFEE7BC
:1058B00000F06EF800212046FEF7FAFE00F09EFA96
:1058C00005463DB94FF0805004490860BFF34F8F43
:1058D000BFF36F8F70BD00008400002004ED00E076
:1058E00010B586B000200590049003AA04A905A86D
:1058F000FFF7D8FE0022DDE904101346CDE90021B0
:1059000002901CA11D48039A00F076F91C4908601A
:105910000846006808B1012400E00024012C15D1DC
:1059200000BF502080F31188BFF34F8FBFF36F8FFC
:1059300000BF4FF0FF301349086001201249086092
:1059400000201249086000F071F810E0601C08B1F6
:10595000012000E0002050B900BF502080F31188E2
:10596000BFF34F8FBFF36F8F00BF00BFFEE706B0DE
:1059700010BD000049444C45000000001D490008CE
:10598000800000207C0000206800002060000020D3
:1059900002480068401C01490860704784000020EC
:1059A0001D48006818B101201C49086032E0002041
:1059B0001A4908601A480068B0FA80F0C0F11F0167
:1059C00001EB8100174A52F8200008B1012000E0E5
:1059D000002050B900BF502080F31188BFF34F8FD3
:1059E000BFF36F8F00BF00BFFEE701EB81020D4BDD
:1059F00003EB820042685268426000F1080243688B
:105A0000934202D14268526842604268D268064BB3
:105A10001A6000BF70470000840000207000002062
:105A200064000020E00900204C0000201CB5524812
:105A300000685249884201D0012000E0002050B99E
:105A400000BF502080F31188BFF34F8FBFF36F8FDB
:105A500000BF00BFFEE7484800684849491E884229
:105A600001D0012000E0002050B900BF502080F399
:105A70001188BFF34F8FBFF36F8F00BF00BFFEE7EA
:105A80003F49084600780190FF200A4610700846FA
:105A9000007800909DF8000000F0F0009DF80020D4
:105AA000904201D1012000E0002050B900BF5020F9
:105AB00080F31188BFF34F8FBFF36F8F00BF00BF1C
:105AC000FEE79DF8000000F050002E4A10700720FD
:105AD0002D4A106009E02C480068401E2A4A1060D8
